:020000040800F2
:1000000000000820D5390008BB0A0008BD0A000816
:10001000BF0A0008C10A0008C30A00080000000067
:10002000000000000000000000000000C50A0008F9
:10003000C70A000800000000C90A0008CB0A00082F
:10004000253A0008253A0008253A0008253A000814
:10005000253A0008253A0008253A0008253A000804
:10006000253A0008253A0008253A0008253A0008F4
:10007000253A0008253A0008253A0008253A0008E4
:10008000253A0008253A0008253A0008253A0008D4
:10009000253A0008253A0008253A0008253A0008C4
:1000A000253A0008253A0008253A0008253A0008B4
:1000B000253A0008253A0008253A0008253A0008A4
:1000C000253A0008253A0008253A0008253A000894
:1000D000253A0008253A0008253A0008253A000884
:1000E000253A0008253A0008253A0008253A000874
:1000F000253A0008253A0008253A0008253A000864
:10010000253A0008253A0008253A0008253A000853
:10011000253A0008253A0008253A0008253A000843
:10012000253A0008253A0008253A0008253A000833
:10013000253A0008253A0008253A0008253A000823
:10014000253A0008253A0008253A0008253A000813
:10015000253A0008253A0008253A0008253A000803
:10016000253A0008253A0008253A0008253A0008F3
:10017000253A0008253A0008253A0008000000004A
:10018000253A0008253A0008253A0008253A0008D3
:10019000253A0008253A0008253A0008253A0008C3
:1001A000253A0008253A0008253A0008253A0008B3
:1001B000253A0008253A0008253A0008253A0008A3
:1001C000253A0008253A000800000000253A0008FA
:1001D000253A0008253A0008253A0008253A000883
:1001E000253A0008253A0008253A0008253A000873
:0801F000253A0008253A000839
:1001F8000348044B834202D0034B03B118477047AE
:10020800F4010020F4010020000000000548064920
:100218000B1AD90F01EBA301491002D0034B03B10C
:1002280018477047F4010020F40100200000000086
:1002380010B5064C237843B9FFF7DAFF044B13B126
:100248000448AFF300800123237010BDF40100209F
:1002580000000000283A000808B5044B1BB1044907
:100268000448AFF30080BDE80840CFE70000000075
:10027800F8010020283A000870B50D4E0D4D761B88
:10028800B61006D00024013455F8043B9847A6421E
:10029800F9D1094E094D761B03F0C2FBB61006D002
:1002A8000024013455F8043B9847A642F9D170BDA3
:1002B800A83A0008A83A0008AC3A0008A83A00088A
:1002C800024B0146186800F0B1B800BF00000020DA
:1002D800024B0146186800F053B800BF0000002028
:1002E800F0B4860746D0541E002A3CD0CAB2034652
:1002F80002E014F1FF3436D303F8012B9D07F8D13F
:10030800032C29D9CDB245EA05250F2C45EA054528
:1003180033D9A4F11006360903F1200707EB0617B5
:1003280003F1100242E9045542E902551032BA427B
:10033800F8D1721C14F00C0F03EB021204F00F0634
:1003480013D0331F23F003030433134442F8045B30
:100358009342FBD106F003042CB1C9B21C4403F844
:10036800011B9C42FBD1F0BC704734461346002C5D
:10037800F3D1F8E714460346C2E71A462646E0E7F3
:1003880000293CD038B551F8043C0C1F002BB8BFED
:10039800E418054600F0C0F8234B1A682AB1A242B7
:1003A8000DD921686018824223D0626028461C60FB
:1003B800BDE8384000F0B2B8A34203D81A465368E3
:1003C800002BF9D111685018A04219D024D82168FF
:1003D8006018834206D0636054602846BDE8384000
:1003E80000F09CB8D3E900030144636021605460C5
:1003F800F3E7D2E90002014462602160D6E7704762
:1004080020680144501883421160E6D1D3E9000303
:10041800014453601160E0E70C232B602846BDE8D7
:10042800384000F07BB800BF10020020F8B5CD1CA2
:1004380025F0030508350C2D38BF0C25002D064680
:1004480033DBA94231D82A4F00F066F83A6852B136
:1004580013685B1B04D43FE023685B1B29D5224645
:100468005468002CF8D1796800293BD029463046D9
:1004780000F040F8431C28D0C41C24F00304A04218
:1004880005D0211A304600F035F801301DD025601E
:10049800304600F043F804F10B0020F00700231D5C
:1004A800C21A01D01B1AA350F8BD0C2232600020DA
:1004B800F8BD0B2B05D8A242636811D05360E7E75B
:1004C800144623601C442560E2E70C233046336061
:1004D80000F024F80020F8BD0B2BF1D8536814461F
:1004E8003B60D5E7304600F005F87860BEE700BF0E
:1004F8001002002038B5074C002305460846236043
:1005080000F00EF8431C00D038BD2368002BFBD048
:100518002B6038BD7C1B0020704700BF704700BFB0
:10052800044A05491368002B08BF0B46184410609D
:100538001846704718020020801B002053B94AB99A
:10054800002908BF00281CBF4FF0FF314FF0FF30D3
:1005580000F06EB9ADF1080C6DE904CE00F006F8B4
:10056800DDF804E0DDE9022304B070472DE9F04727
:10057800089D04468C46002B40F083808A4217462B
:1005880047D9B2FA82F242B1C2F1200024FA00F04F
:100598009140974040EA010C94404FEA1748230CD9
:1005A800BCFBF8F61FFA87FE08FB16C143EA0143B5
:1005B80006FB0EF1994209D9FB1806F1FF3080F0CD
:1005C8001981994240F21681023E3B445B1AA4B25B
:1005D800B3FBF8F008FB103344EA034400FB0EFEBB
:1005E800A64509D93C1900F1FF3380F00581A645DD
:1005F80040F2028102383C4440EA0640A4EB0E0473
:1006080000261DB1D4400023C5E900433146BDE8AA
:10061800F08702B9FFDEB2FA82F2002A50D1CB1B72
:100628004FEA174E1FFA87F80126B3FBFEFC210C90
:100638000EFB1C3341EA034108FB0CF38B4207D93C
:1006480079180CF1FF3002D28B4200F2E98084461F
:10065800C91AA3B2B1FBFEF00EFB101143EA014424
:1006680008FB00F8A04507D93C1900F1FF3302D276
:10067800A04500F2D9801846A4EB080440EA0C40D3
:10068800BFE78B4209D9002D00F0B1800026C5E9EB
:10069800000130463146BDE8F087B3FA83F6002EF4
:1006A8004AD18B4202D3824200F2B880841A61EBAD
:1006B800030101208C46002DA8D0C5E9004CA5E710
:1006C800C2F1200320FA03F6974001FA02F04FEA3C
:1006D800174ED9403043030CB1FBFEF61FFA87F8DA
:1006E8000EFB161143EA014306FB08F1994204FA8E
:1006F80002F409D9FB1806F1FF3C80F08D8099427D
:1007080040F28A80023E3B445B1A81B2B3FBFEF0A2
:100718000EFB103341EA034100FB08F38B4207D973
:10072800791800F1FF3C73D28B4271D902383944F1
:10073800CB1A40EA064678E7C6F1200C03FA06F41D
:1007480022FA0CF31C4320FA0CF701FA06F34FEADD
:10075800144E21FA0CF11F433B0CB1FBFEF91FFAB2
:1007680084F80EFB191143EA014109FB08FA8A458E
:1007780002FA06F200FA06F308D9611809F1FF3007
:1007880048D28A4546D9A9F102092144A1EB0A01B8
:10079800BFB2B1FBFEF00EFB101147EA014700FBA8
:1007A80008F8B84507D9E71900F1FF312ED2B84546
:1007B8002CD90238274440EA0940A7EB0807A0FBD8
:1007C80002894F45C64649461AD317D05DB1B3EBE7
:1007D8000E0267EB010707FA0CFCF2404CEA020232
:1007E800F740C5E9002700263146BDE8F0872E46C8
:1007F80028460BE70646E9E61846FDE64345E5D2F6
:10080800B8EB020E69EB04010138DFE70846D2E7CE
:1008180060468DE78146B9E7664675E730464AE7A0
:10082800ACF1020C394413E702383C4424E700BF1A
:10083800704700BF2DE9F04F8DB00024079408944D
:1008480009940A940B94524B1A6B42F004021A63EF
:100858001A6B02F004020192019A1A6B42F08002AC
:100868001A631A6B02F080020292029A1A6B42F023
:1008780001021A631A6B02F001020392039A1A6BBF
:1008880042F002021A631A6B02F002020492049AFE
:100898001A6B42F008021A631A6B02F008020592FA
:1008A800059A1A6B42F040021A631B6B03F040036F
:1008B8000693069BDFF8E890224644F281014846F9
:1008C80002F05EFA334D22464021284602F058FADB
:1008D8004FF4005BCDF81CB02F4B08930994DFF858
:1008E800C4A007A9504602F0B5F8322307934FF089
:1008F8000208CDF82080099403270A970B260B9647
:1009080007A9504602F0A6F886230793CDF8208061
:1009180009940A970B9607A9204802F09BF844F21D
:10092800810307934FF0010ACDF820A009940A9497
:1009380007A9484602F08EF8CDF81CB0CDF8208003
:1009480009940A970B9607A9484602F083F84023B2
:100958000793CDF820A009940A9407A9284602F025
:1009680079F8802307930894099407A9284602F088
:1009780071F84FF420530793CDF8208009940A9713
:100988000B9607A9284602F065F80DB0BDE8F08F70
:100998000038024000180240000011100000024018
:1009A800000402400008024008B50948094B0360EA
:1009B8004FF4E133436000238360C36003610C227A
:1009C80042618361C3610362436202F0ABFD08BD0B
:1009D800200200200048004030B5B9B03422002180
:1009E8002BA8FFF77DFC00242694279428942994AB
:1009F8002A949022214602A8FFF772FC02F0C6F959
:100A0800204B1A6C42F080521A641B6C03F080531E
:100A18000093009B1C4B1A6842F440421A601B6802
:100A280003F440430193019B01232B934FF4A0232C
:100A38002C93022531954FF480033293042333938A
:100A4800D82334933595092336932BA801F09CF9C4
:100A580002F0A4F90F232693279528944FF4A05366
:100A680029934FF480532A93072126A801F014FCF8
:100A7800064B02931594219402A801F0E9FC39B0C1
:100A880030BD00BF00380240007000400001200067
:100A980008B502F059FAFFF79FFFFFF7CBFEFFF703
:100AA80083FF00F0B5F800F061F800F09FF8FEE76A
:100AB80070477047FEE7FEE7FEE7FEE770477047BE
:100AC800704708B502F04CFA08BD000082B00A4B26
:100AD8001A6C42F080521A641A6C02F0805200922A
:100AE800009A5A6C42F480425A645B6C03F4804367
:100AF8000193019B02B070470038024000B589B0ED
:100B08000023039304930593069307930268154BF8
:100B18009A4202D009B05DF804FB03F5F8331A6C69
:100B280042F480221A641A6C02F480220192019A1B
:100B38001A6B42F008021A631B6B03F00803029356
:100B4800029B4FF4407303930223049300230593FD
:100B5800032306930723079303A9034801F07AFFA9
:100B6800D8E700BF00480040000C024010B51B4CFD
:100B78000121204602F05EF88021204602F05AF852
:100B88004FF48041204602F055F84FF400511448C4
:100B980002F050F8134B1A6B22F004021A631A6B16
:100BA80022F008021A631A6B22F002021A631A6B07
:100BB80022F001021A631A6B22F080021A631A6B80
:100BC80022F040021A6301F033F802F081F9064B73
:100BD80000221A605A609A6010BD00BF00040240EB
:100BE800000802400038024010E000E008B5054B5C
:100BF8001968054A12680548836081F30888904798
:100C080008BD00BF000004080400040800ED00E06F
:100C180008B500220F49104802F0C4FC70B90F490A
:100C28000D4802F0DBFC60B90D490B4802F0A0FE4C
:100C380050B9094802F0E6FC48B908BDFFF738FF8B
:100C4800EDE7FFF735FFEFE7FFF732FFF1E7FFF7D3
:100C58002FFFF2E764000020A4020020E400002037
:100C6800C400002012230B80004870479000002029
:100C780004230B8000487047A40000200C230B803D
:100C880000487047840000200023934217D230B4F4
:100C98000BE0373401F8134000015C0001340025F3
:100CA8000D550133DBB2934207D2040FB0F1204F48
:100CB800EFD2303401F81340EEE730BC704770478C
:100CC80038B50A4B186804331C6804331B68C0180D
:100CD80000D138BD064D0822A91CFFF7D5FF042214
:100CE80005F112012046FFF7CFFFF2E720F4F01FCD
:100CF800A800002008B51A230B80FFF7E1FF014880
:100D080008BD00BFA800002008B50A4628B9054953
:100D1800054802F08EFC034808BD0249024802F06B
:100D280088FCF8E774050020403A000810B50A4628
:100D3800034C2146034802F07CFC204610BD00BF4E
:100D480074050020583A000808B50A4628B905492C
:100D5800054802F06EFC034808BD0249024802F04B
:100D680068FCF8E7740500206C3A000808B50A46E4
:100D780028B90549054802F05CFC034808BD02494A
:100D8800024802F056FCF8E774050020783A00089B
:100D980000207047002070470020704710B50146BA
:100DA800044C204602F0F3FD204602F0F6FD002038
:100DB80010BD00BFA402002010B5064C0022064951
:100DC800204602F0DCFD0549204602F0E0FD002047
:100DD80010BD00BFA4020020740F0020740700207B
:100DE80070B588B000230393049305930693079383
:100DF8000368B3F1A04F01D008B070BD1A4C236B43
:100E080043F001032363236B03F001030093009B6A
:100E18004FF4E85303930223049300250595032315
:100E280006930A230793114E03A9304601F012FED8
:100E38004FF4007303930495059503A9304601F018
:100E480009FE636B43F080036363636B03F0800305
:100E58000193019B636C43F480436364636C03F404
:100E680080430293029BC7E700380240000002401B
:100E780002780AB10020704710B503461548C0F83B
:100E88000034C3F8C4024FF0A04303600623436054
:100E98000222C2600023036182610122C2610362EF
:100EA8004362C262036300F05AF880B9094C80219A
:100EB800204600F04AFA40220021204600F021FA9C
:100EC80080220121204600F01CFA002010BDFFF707
:100ED800EFFDEBE77417002008B5D0F8C40200F066
:100EE80098F908BD032805D8DFE800F005040205D5
:100EF800012070470320704708B5D0F8C40200F0FD
:100F0800C8F8FFF7EFFF08BD10B514461A46234688
:100F1800D0F8C40200F0D2F8FFF7E4FF10BD08B51E
:100F2800D0F8C40200F00DF9FFF7DCFF08BD08B5E2
:100F3800D0F8C40200F0A1F9FFF7D4FF08BD08B546
:100F4800D0F8C40200F06EF9FFF7CCFF08BD08B571
:100F5800D0F8C40200F02EF9FFF7C4FF08BDF0B5C1
:100F68008BB0002800F093800546046890F8BD33E4
:100F78002BB3032385F8BD33E36B13F4807F01D1D2
:100F880000232B61286800F05BFA2C4654F8107B8C
:100F98006E460FCC0FC60FCC0FC694E8030086E848
:100FA80003002B1D0ECB384600F006FA044658B154
:100FB800022385F8BD33012420460BB0F0BD80F82C
:100FC800BC33FFF70DFFD4E70021286800F03EFA94
:100FD800234616E0C3EBC30205EB8202012182F827
:100FE8003D1082F83C30A2F84230002182F83F10D0
:100FF80051649164C3EBC30205EB820211650133AE
:10100800DBB269688B42E5D316E0C4EBC40305EB99
:101018008303002283F8FD2183F8FC4183F8FF2134
:10102800C3F80422C3F80822C4EBC40305EB830306
:10103800C3F810220134E4B2A142E6D82C4654F891
:10104800107B6E460FCC0FC60FCC0FC694E803007A
:1010580086E803002B1D0ECB384600F03DFA044607
:1010680060B9002385F83830012385F8BD336B6AF1
:10107800012B08D0286800F09EFD9DE7022385F823
:10108800BD33012498E7284600F064F9F2E701240B
:1010980092E790F8BC33012B0ED010B5044601231B
:1010A80080F8BC33006800F07AFD206800F0C2F9CF
:1010B800002084F8BC0310BD02207047F8B507462D
:1010C8000C4611F0800F27D101F00F05C5EBC506BE
:1010D800B60006F5FC760644311DC5EBC50500EBE8
:1010E8008505002085F8FD0104F00F040C708A6066
:1010F800CB704A7802B1CC80022B1DD097F8BC3354
:10110800012B1CD0012387F8BC33386800F0BAFAE9
:10111800002087F8BC03F8BD01F00F00C0EBC00148
:101128008900383139440431C0EBC00007EB800036
:10113800012580F83D50D7E700230B71DEE7022038
:10114800E9E710B504460A4611F0800F20D101F0F6
:101158000F00C0EBC0039B0003F5FC732344191D6B
:10116800C0EBC00004EB8000002380F8FD3102F0E2
:101178000F020A7094F8BC33012B19D0012384F8AC
:10118800BC33206800F0C6FA002084F8BC0310BD08
:1011980001F00F00C0EBC0039B0038332344191D36
:1011A800C0EBC00004EB8000012380F83D30DEE78F
:1011B8000220ECE738B501F00F04C4EBC401890044
:1011C80001F5FC7101440431C4EBC40500EB85054D
:1011D800C5F80822C5F810320023C5F8143285F87E
:1011E800FD3185F8FC410369012B06D064B9DAB2F8
:1011F800006800F0FDFA002038BDC4EBC40500EB20
:101208008505C5F80C22F1E7DAB2006800F090FB1A
:10121800F1E701F00F01C1EBC10100EB8101D1F849
:101228001402704738B501F00F04C4EBC4018900FB
:10123800383101440431C4EBC40500EB8505AA64C8
:101248002B6500236B65012385F83D3085F83C400C
:101258000369012B06D05CB9DAB2006800F0C8FA5D
:10126800002038BDC4EBC40500EB8505EA64F2E74D
:10127800DAB2006800F05CFBF2E738B501F00F0560
:101288004268954239D804460B4611F0800F1FD1A9
:10129800C1EBC101890001F5FC7101440431C3EBC4
:1012A800C30300EB8303002283F8FD2101238B7025
:1012B8000D7094F8BC33012B21D0012384F8BC3382
:1012C800206800F03FFC8DB1002084F8BC0338BDD5
:1012D800C5EBC5018900383101440431C5EBC503AC
:1012E80000EB8303012283F83D20DFE704F57172E8
:1012F800217C206800F06CFCE6E70120E7E702208B
:10130800E5E730B40468606A19B940EA0240A062AF
:1013180018E00D46A36A00EB13400023691E8B42B8
:1013280009D203F1400104EB8101496800EB114047
:101338000133DBB2F2E740EA024005F13F0104EB7A
:1013480081014860002030BC704703685962002062
:1013580070470000034602680121C0F8FC13002012
:1013680083F8F403936943F000639361516D024B72
:101378000B435365704700BF03000010002301337F
:101388000C4A934211D80269002AF8DA036943F03B
:101398000103036100230133064A934207D8026917
:1013A80012F0010FF7D10020704703207047032087
:1013B800704700BF400D030084B010B5044603A871
:1013C80080E80E00089B012B1DD1A36B23F480330A
:1013D800A363E268164B1340E360E36823F4401309
:1013E800E3600F9B012B09D02046FFF7C7FF069B40
:1013F800012B14D0BDE8104004B07047E36843F4F3
:101408008013E360F0E7E36843F04003E3602046BD
:10141800FFF7B4FFA36B43F48033A363E7E7A36844
:1014280043F00603A360A36843F02003A360E1E749
:10143800BFFFBDFF836843F001038360002070474E
:10144800836823F0010383600020704708B5C368F0
:1014580023F0C043C360012909D069B9C36843F0C8
:101468008043C360322001F08DFD002008BDC368B1
:1014780043F00053C360F5E70120F7E7890141F025
:101488002001016100230133054A934205D802690E
:1014980012F0200FF7D1002070470320704700BFDB
:1014A800400D03001023036100230133054A9342D2
:1014B80005D8026912F0100FF7D1002070470320F9
:1014C800704700BF400D0300D0F800381943C0F83A
:1014D800001800207047000084B02DE9F843044646
:1014E80009A880E80E002546002306E003F1400223
:1014F80004EB82020021516001330E2BF6D9DDF88E
:101508004C80B8F1000F26D1D4F8043843F0020318
:10151800C4F80438A36B23F40013A363236843F0CF
:1015280040032360236843F0800323600023C4F84A
:10153800003E04F50066D4F80038C4F800380E9B65
:10154800012B0DD0032B1CD10B9BABB900212046DE
:10155800FFF7BAFF19E0A36B43F40013A363E5E7B1
:101568000B9B23B900212046FFF7AEFF0DE00121B8
:101578002046FFF7A9FF08E001212046FFF7A4FF56
:1015880003E003212046FFF79FFF10212046FFF7C5
:1015980075FF814608B14FF001092046FFF782FF29
:1015A80008B14FF00109002333617361F3610AE068
:1015B800C3B94FF00060C2F8000900220A614FF673
:1015C8007F328A600133099F9F4210D905EB43128D
:1015D80002F51061D2F800090028E9DB0020C2F802
:1015E8000009EAE74FF09040C2F80009E5E7002358
:1015F8000AE0BBB14FF09040C2F8000B00220A612C
:101608004FF67F328A6001339F4210D905EB4312AF
:1016180002F53061D2F8000B0028EADB0020C2F89E
:10162800000BEBE74FF00060C2F8000BE6E7336908
:1016380023F4807333610023A3616FF080436361F7
:101648000C9B1BB9A36943F01003A361A2690B4B60
:101658001343A3610F9B1BB1A36943F00803A36164
:10166800B8F1010F04D04846BDE8F84304B070470C
:10167800A269034B1343A361F5E700BF00383C8020
:101688000400004070B40C784B78012B20D0D0F8BF
:101698001C3804F00F060122B24043EA0243C0F8A6
:1016A8001C3800EB4410D0F8003B13F4004F0CD169
:1016B800D0F8002B8B68C3F30A03C97843EA814347
:1016C8001343134A1A43C0F8002B002070BC70471C
:1016D800D0F81C2804F00F06B3409BB21343C0F89F
:1016E8001C3800EB4410D0F8003913F4004FECD14B
:1016F800D0F800298B68C3F30A03C97843EA814309
:1017080043EA84541443024B2343C0F80039DCE70E
:101718000080001030B40B784A78012A24D000EBFE
:101728004313D3F8002B002A50DBD0F83C580A7832
:1017380002F00F02012404FA02F225EA0242C0F87C
:101748003C28D0F81C28097801F00F018C4022EAC7
:101758000444C0F81C48D3F8001B234A0A40C3F8C5
:10176800002B002030BC704700EB4313D3F800294E
:10177800002A1EDBD0F83C580A7802F00F02012438
:1017880004FA02F292B225EA0202C0F83C28D0F824
:101798001C28097801F00F018C40A4B222EA040445
:1017A800C0F81C48D3F80019104A0A40C3F80029A9
:1017B800D7E7D3F8002942F00062C3F80029D3F82C
:1017C800002942F08042C3F80029D3E7D3F8002B60
:1017D80042F00062C3F8002BD3F8002B42F080429D
:1017E800C3F8002BA1E700BF0078F3EF007833ECD3
:1017F80070B40B784C78012C24D000EB431000F522
:1018080030631D693E4C2C401C611D693D4C2C40C9
:101818001C614C690CB18C684C611C6944F400244F
:101828001C611C698D68C5F312052C431C61012AD3
:1018380061D0D0F8003B43F00443C0F8003B0020DF
:1018480070BC70474C695CBB00EB4314D4F810695A
:101858002C4D3540C4F81059D4F8105945F40025DA
:10186800C4F81059D4F81069254D3540C4F81059FA
:10187800012A31D000EB4313D3F8002942F0044287
:10188800C3F800294B69002BD9D0D0F834380A782E
:1018980002F00F0101228A401343C0F83438CEE722
:1018A80000EB431404F510642669154D3540256195
:1018B8002669144D354025614E698D68AE4200D9C0
:1018C8004D61256945F40025256125694E69C6F3F2
:1018D800120635432561CBE70A691AB100EB4311BB
:1018E800C1F8142900EB4310D0F8002942F0044253
:1018F800C0F80029A3E7CA68002A9AD05A6198E775
:101908000000F8FFFFFF07E070B49DF80C4064B9D1
:1019180003339D08AC4208D200EB023303F5805331
:1019280051F8046B1E600134F4E7002070BC704766
:10193800F0B583B00B784C78012C29D000EB431319
:1019480003F5306426697C4D3540256126697B4D59
:10195800354025614D69002D40F0BF8025698E68AE
:10196800C6F3120635432561256945F4002525612E
:10197800012A00F0C780CA78012A00F0C980D3F88C
:10198800002B42F00442C3F8002B002003B0F0BD46
:101998004C6974BB00EB4314D4F81069674D3540AB
:1019A800C4F81059D4F8105945F40025C4F8105952
:1019B800D4F81069604D3540C4F81059012A4AD04E
:1019C80000EB4313D3F8004944F00444C3F800493A
:1019D800CC78012C68D04B69002BD6D0D0F83428AD
:1019E800097801F00F040121A1400A43C0F8342806
:1019F800CBE700EB4314D4F810694F4D3540C4F8D9
:101A08001059D4F810694D4D3540C4F81059D4F820
:101A180010694D698F683D44013DB5FBF7F5484FA6
:101A280007EAC5453543C4F81059D4F810594E692A
:101A3800C6F312063543C4F8105904F51064CD787E
:101A4800012DBBD1256925F0C0452561256945F0E3
:101A580000552561B2E70A691AB100EB4314C4F8CE
:101A68001429CA78012A08D000EB4313D3F80029B7
:101A780042F00442C3F8002987E7D0F8082812F496
:101A8800807F08D100EB4311D1F8002942F00052C1
:101A9800C1F80029E8E700EB4311D1F8002942F02A
:101AA8008052C1F80029DFE7D0F8084814F4807F95
:101AB8000CD1D3F8004944F00054C3F8004900920F
:101AC8008B8A0A78C968FFF71FFF5EE7D3F80049D9
:101AD80044F08054C3F80049F1E78E683544013D6D
:101AE800B5FBF6F52669164F07EAC5473E4326615A
:101AF80027698E68ADB206FB05F5C5F312053D43AF
:101B0800256135E7CA68002A3FF435AF626132E7DC
:101B1800D0F8082812F4807F06D1D3F8002B42F0C1
:101B28000052C3F8002B2AE7D3F8002B42F080526A
:101B3800C3F8002B23E700BF0000F8FFFFFF07E012
:101B48000000F81F0B784A78012A14D000EB4310E4
:101B5800D0F8002B002A06DB2BB1D0F8003B23F08D
:101B68008043C0F8003BD0F8003B43F40013C0F8B2
:101B7800003B0020704700EB4310D0F80029002AF2
:101B880006DB2BB1D0F8003923F08043C0F80039C8
:101B9800D0F8003943F40013C0F80039E9E708B574
:101BA800D0F8043823F00203C0F80438032001F009
:101BB800E9F9002008BD08B5D0F8043843F002035D
:101BC800C0F80438032001F0DDF9002008BD00004A
:101BD80010B4046C154B9C4203D9D0F8003B002B81
:101BE80016DB0024C0F8104BD0F8104B44F4002446
:101BF800C0F8104BD0F8104B44F01804C0F8104B44
:101C0800D0F8104B44F0C044C0F8104B012903D061
:101C180000205DF8044B7047C0F8142BD0F8003B47
:101C280043F08023C0F8003BF2E700BF0A30544F6E
:101C380038B501F0A1F904464E4A136843F0010390
:101C480013604C4B1B6813F0020F06D101F094F996
:101C5800001B0228F5D9032038BD464D2B6843F0F8
:101C680080032B6001F088F904460023AB60414BE8
:101C78009B6813F00C0F08D001F07EF9001B41F2AD
:101C880088339842F3D90320E6E701F075F9044652
:101C9800384A136823F450231360364B1B6813F437
:101CA800003F06D001F068F9001B6428F5D903202D
:101CB800D2E701F061F904462E4A136823F08073D5
:101CC80013602C4B1B6813F0007F06D001F054F909
:101CD800001B0228F5D90320BEE701F04DF90446A0
:101CE800244A136823F080631360224B1B6813F0A7
:101CF800006F06D001F040F9001B6428F5D90320D5
:101D0800AAE701F039F904461A4A136823F0805308
:101D18001360184B1B6813F0005F06D001F02CF914
:101D2800001B6428F5D9032096E7124B124A5A6023
:101D3800103AC3F88420C3F88820DA6822F4FE42F7
:101D4800DA60DA6842F47F02DA605A6F22F0010240
:101D58005A675A6F42F080725A67084B084A1A60ED
:101D6800084B186801F0CAF800283FF475AF012045
:101D780072E700BF0038024010300024E000002065
:101D88000024F400DC000020002800F0068270B572
:101D980082B00446036813F0010F29D0A74B9B6853
:101DA80003F00C03042B1AD0A44B9B6803F00C031C
:101DB800082B0FD06368B3F5803F40D0002B54D177
:101DC8009E4B1A6822F480321A601A6822F4802224
:101DD8001A6039E0994B5B6813F4800FEAD0974B8F
:101DE8001B6813F4003F03D06368002B00F0D78111
:101DF800236813F0020F74D0904B9B6813F00C0FFC
:101E08005ED08E4B9B6803F00C03082B53D0E3681D
:101E1800002B00F08980894A136843F0010313609E
:101E280001F0AAF80546854B1B6813F0020F72D122
:101E380001F0A2F8401B0228F5D90320B4E17F4A3B
:101E4800136843F48033136063682BB301F094F88C
:101E580005467A4B1B6813F4003FC9D101F08CF892
:101E6800401B6428F5D903209EE1B3F5A02F09D0C3
:101E7800724B1A6822F480321A601A6822F480229F
:101E88001A60E1E76D4B1A6842F480221A601A68FA
:101E980042F480321A60D7E701F06EF80546674BC6
:101EA8001B6813F4003FA3D001F066F8401B6428B8
:101EB800F5D9032078E1614B5B6813F4800FA6D154
:101EC8005E4B1B6813F0020F03D0E368012B40F050
:101ED80068815A4A136823F0F803216943EAC10369
:101EE8001360236813F0080F46D0636983B3534A1D
:101EF800536F43F00103536701F03EF805464F4B1B
:101F08005B6F13F0020F37D101F036F8401B02283F
:101F1800F5D9032048E1494A136823F0F8032169F9
:101F280043EAC1031360DCE7444A136823F0010362
:101F3800136001F021F80546404B1B6813F0020FAF
:101F4800CFD001F019F8401B0228F5D903202BE166
:101F58003A4A536F23F00103536701F00DF8054621
:101F6800364B5B6F13F0020F06D001F005F8401BEB
:101F78000228F5D9032017E1236813F0040F7DD058
:101F88002E4B1B6C13F0805F0BD12C4B1A6C42F05C
:101F980080521A641B6C03F080530193019B012546
:101FA80000E00025264B1B6813F4807F0ED0A36841
:101FB800012B1FD0002B35D1204B1A6F22F00102C4
:101FC8001A671A6F22F004021A6718E01C4A13688D
:101FD80043F48073136000F0CFFF0646184B1B686C
:101FE80013F4807FE3D100F0C7FF801B6428F5D984
:101FF8000320D9E0114A136F43F001031367A36864
:1020080053B300F0B9FF06460C4B1B6F13F0020FD9
:1020180033D100F0B1FF801B41F288339842F3D9E5
:102028000320C1E0052B0DD0044B1A6F22F00102EA
:102038001A671A6F22F004021A67E0E700380240B4
:1020480000700040604B1A6F42F004021A671A6F62
:1020580042F001021A67D2E700F08EFF06465A4B9B
:102068001B6F13F0020F08D000F086FF801B41F2AF
:1020780088339842F3D9032096E0FDB9A369002B71
:1020880000F09180504A926802F00C02082A59D058
:10209800022B19D04C4A136823F08073136000F0A8
:1020A8006BFF0446484B1B6813F0007F48D000F0D4
:1020B80063FF001B0228F5D9032075E0424A136C20
:1020C80023F080531364D9E73F4A136823F08073E1
:1020D800136000F051FF05463B4B1B6813F0007F6F
:1020E80006D000F049FF401B0228F5D903205BE029
:1020F800E369226A1343626A43EA8213A26A5208B6
:10210800013A43EA0243E26A43EA0263226B43EA82
:1021180002732D4A5360136843F08073136000F014
:102128002BFF0446284B1B6813F0007F06D100F0F4
:1021380023FF001B0228F5D9032035E0002033E0F7
:10214800002031E0204A5268012B2FD002F480038E
:10215800E1698B422CD102F03F03216A8B4229D1DD
:10216800616A47F6C0731340B3EB811F24D102F4B0
:102178004031A36A5B08013BB1EB034F1ED102F06B
:102188007063E16AB3EB016F1AD102F0E042236B8E
:10219800B2EB037F16D1002006E001207047012032
:1021A80002E0012000E0002002B070BD0120FBE742
:1021B8000120F9E70120F7E70120F5E70120F3E71F
:1021C8000120F1E70120EFE700380240F8B52F4B76
:1021D8009B6803F00C03042B53D0082B53D12B4BD3
:1021E8005A6802F03F025B6813F4800F28D0274B2F
:1021F8005B68C3F3881358010021C01A61F100011C
:102208008E0146EA906687013C1A66EB0105E900F3
:1022180041EA5471E000C01841F100014B0243EA61
:10222800D0534402204619460023FEF787F9174B7E
:102238005B68C3F3014301335B00B0FBF3F023E0B9
:10224800124B5B68C3F388135C010025E41A65F13F
:102258000005AE0146EA9466A701381B66EB050146
:10226800CC0044EA5074C500E81844F100018B0220
:1022780043EA90538402204619460023FEF75EF98C
:10228800D5E7034800E00348F8BD00BF0038024026
:1022980000127A000024F400002800F0A08070B535
:1022A8000D460446524B1B6803F00F038B420BD2BA
:1022B8004F4A136823F00F030B431360136803F0AE
:1022C8000F038B4240F08D80236813F0020F17D064
:1022D80013F0040F04D0474A936843F4E053936023
:1022E800236813F0080F04D0424A936843F460430C
:1022F8009360404A936823F0F003A1680B4393600E
:10230800236813F0010F31D06368012B20D0022B12
:1023180025D0384A126812F0020F64D035498A680D
:1023280022F0030213438B6000F026FE0646314B71
:102338009B6803F00C036268B3EB820F16D000F0C1
:102348001BFE801B41F288339842F0D9032045E0F8
:10235800284A126812F4003FE0D101203EE0254AE5
:10236800126812F0007FD9D1012037E0204B1B689A
:1023780003F00F03AB420AD91D4A136823F00F0379
:102388002B431360136803F00F03AB422DD123686E
:1023980013F0040F06D0174A936823F4E053E1685A
:1023A8000B439360236813F0080F07D0114A936812
:1023B80023F46043216943EAC1039360FFF706FFF2
:1023C8000C4B9B68C3F303130B4AD35CD8400B4BED
:1023D80018600B4B186800F091FD002070BD0120BB
:1023E80070470120FAE70120F8E70120F6E700BF6F
:1023F800003C024000380240883A0008E000002013
:10240800DC000020014B1868704700BFE000002086
:1024180008B5FFF7F7FF044B9B68C3F38223034A11
:10242800D35CD84008BD00BF00380240983A000885
:1024380008B5FFF7E7FF044B9B68C3F34233034A31
:10244800D35CD84008BD00BF00380240983A000865
:10245800F0B583B00446066816F001060DD0B54BFA
:102468009A6822F400029A609A68416B0A439A605B
:10247800436B002B00F055810026256815F40025D4
:1024880011D0AC4AD2F88C3023F44013E16B0B43E3
:10249800C2F88C30E36BB3F5801F00F04481002B49
:1024A80000F043810025236813F4801F0FD0A14A50
:1024B800D2F88C3023F44003216C0B43C2F88C30E3
:1024C800236CB3F5800F00F0328103B9012523682E
:1024D80013F0807F00D0012613F0200F40F02C81EC
:1024E800236813F0100F0CD0924BD3F88C2022F0F5
:1024F8008072C3F88C20D3F88C20A16B0A43C3F8F0
:102508008C20236813F4804F08D08A4AD2F8903080
:1025180023F44033616E0B43C2F89030236813F400
:10252800004F08D0834AD2F8903023F44023A16E9C
:102538000B43C2F89030236813F4803F08D07D4ADB
:10254800D2F8903023F44013E16E0B43C2F8903078
:10255800236813F4003F08D0764AD2F8903023F469
:102568004003216F0B43C2F89030236813F0400FEB
:1025780008D0704AD2F8903023F00303616C0B4303
:10258800C2F89030236813F0800F08D0694AD2F857
:10259800903023F00C03A16C0B43C2F890302368F1
:1025A80013F4807F08D0634AD2F8903023F03003C8
:1025B800E16C0B43C2F89030236813F4007F08D015
:1025C8005C4AD2F8903023F0C003216D0B43C2F867
:1025D8009030236813F4806F08D0564AD2F89030B0
:1025E80023F44073616D0B43C2F89030236813F4F1
:1025F800006F08D04F4AD2F8903023F44063A16DA1
:102608000B43C2F89030236813F4805F08D0494A1E
:10261800D2F8903023F44053E16D0B43C2F8903068
:10262800236813F4005F08D0424AD2F8903023F4AC
:102638004043216E0B43C2F89030236813F4800F97
:1026480008D03C4AD2F8903023F08063A16F0B4346
:10265800C2F89030236813F4001F0DD0354AD2F821
:10266800903023F00063E16F0B43C2F89030E36FC2
:10267800B3F1006F00F0C680236813F0080F00D094
:10268800012513F4802F08D02A4AD2F8903023F07D
:102698004073616F0B43C2F89030236813F4000F46
:1026A80009D0244AD2F8903023F08053D4F880100F
:1026B8000B43C2F89030236813F0806F09D01D4A8D
:1026C800D2F8903023F00053D4F884100B43C2F8AA
:1026D8009030236813F0006F09D0164AD2F88C3076
:1026E80023F00073D4F888100B43C2F88C302368A9
:1026F80013F0805F09D00F4AD2F88C3023F0806342
:10270800D4F88C100B43C2F88C30002E7CD123688F
:10271800B3F1007F78D0012D00F00981002003B0CB
:10272800F0BD0126A9E60126B9E60125BBE601268A
:10273800CBE600BF00380240B74B1A6C42F080521B
:102748001A641B6C03F080530193019BB34A13680E
:1027580043F48073136000F00FFC0746AF4B1B680F
:1027680013F4807F06D100F007FCC01B6428F5D95C
:102778000320D4E7A84B1B6F13F4407315D0226BCA
:1027880002F440729A4210D0A34B1A6F22F440729E
:10279800196F41F480311967196F21F48031196775
:1027A8001A671B6F13F0010F12D1236B03F44072E9
:1027B800B2F5407F1DD0984A936823F4F8139360CC
:1027C80095490B6F226BC2F30B0213430B6787E625
:1027D80000F0D2FB0746904B1B6F13F0020FE4D1B9
:1027E80000F0CAFBC01B41F288339842F3D903209A
:1027F80095E78948826822F4F812894919400A4302
:102808008260DDE7012537E7834A136823F0806398
:10281800136000F0B1FB06467F4B1B6813F0006F96
:1028280006D000F0A9FB801B6428F5D9032076E7C1
:10283800236813F0010F13D0636B8BB9764AD2F873
:102848008430D2F88410606803F4403343EA80137C
:1028580001F070610B43A16843EA0173C2F8843048
:10286800236813F4002F03D0E26BB2F5801F06D063
:1028780013F4801F1ED0236CB3F5800F1AD1664A5B
:10288800D2F88430D2F88410606803F4403343EA05
:102898008013E06843EA006301F0E0410B43C2F8AB
:1028A8008430D2F88C3023F01F03616A01390B435E
:1028B800C2F88C30236813F0807F11D0564AD2F8C2
:1028C8008400D2F88410666823691B0443EA8613DF
:1028D80000F07060034301F0E0410B43C2F884301C
:1028E800236813F0007F0DD0626823691B0443EA54
:1028F8008213E26843EA0263A26843EA0273464A23
:10290800C2F88430444A136843F08063136000F0CF
:1029180033FB0646404B1B6813F0006F7FF4FBAE99
:1029280000F02AFB801B6428F4D90320F7E63A4A12
:10293800136823F08053136000F01EFB0546364BE6
:102948001B6813F0005F06D000F016FB401B6428DC
:10295800F5D90320E3E6236813F4002F01D0E26BD6
:1029680022B113F4801F1DD0236CDBB92A4AD2F898
:102978008830D2F88810606903F4403343EA801342
:10298800A06943EA006301F0E0410B43C2F88830D4
:10299800D2F88C3023F4F853A16A013943EA0123B1
:1029A800C2F88C30236813F4001F03D0E36FB3F12F
:1029B800006F37D0236813F0080F19D0164AD2F8E1
:1029C8008810D2F88830606903F4403343EA8013F2
:1029D80001F070610B43E16943EA0173C2F8883082
:1029E800D2F88C3023F44033E16A0B43C2F88C30C0
:1029F800094A136843F08053136000F0BDFA044697
:102A0800054B1B6813F0005F1FD100F0B5FA001BDF
:102A18006428F5D9032082E600380240007000409F
:102A2800FFFCFF0F0A4AD2F88800D2F888106569BF
:102A3800236A1B0443EA851300F07060034301F026
:102A4800E0410B43C2F88830B4E7002067E600BFD6
:102A58000038024000230F2B00F2E380F0B583B06A
:102A680039E0092200E00022B2403A4302346D4EB8
:102A780046F824206C4A1468EA4324EA05064F689D
:102A880017F4803F01D045EA0406674C2660646865
:102A980002EA04064F6817F4003F01D045EA04062D
:102AA800614C6660A46802EA04064F6817F4801F48
:102AB80001D045EA04065C4CA660E46822404E68F2
:102AC80016F4001F01D045EA0402574CE2600133B6
:102AD8000F2B00F2A48001229A400C6804EA020538
:102AE80032EA0404F3D14C68661E112C18BF012E7B
:102AF80001D9122C12D186685F000324BC4026EA53
:102B08000406CC68BC4034438460466826EA020662
:102B18004C68C4F300129A4032434260C7685E00B2
:102B28000324B440E24327EA04078C68B4403C43DA
:102B3800C4604C68122C18BF022C13D1DF08083768
:102B480050F827E003F007044FEA840C0F2404FA36
:102B58000CF42EEA040E0C6904FA0CF444EA0E0490
:102B680040F82740046814404A6802F00302B24063
:102B7800224302604A6812F0805FA8D02B4A546C46
:102B880044F480445464526C02F480420192019AE5
:102B98009C08A61C234A52F8267003F003029600EC
:102BA8000F22B24027EA0207214A90423FF45BAF66
:102BB80002F58062904222D002F58062904220D0D5
:102BC80002F5806290421ED002F5806290421CD0CD
:102BD80002F5806290421AD002F58062904218D0C5
:102BE80002F58062904216D002F58062904214D0BD
:102BF80002F5806290423FF434AF0A2234E70122A2
:102C080032E7022230E703222EE704222CE70522CE
:102C18002AE7062228E7072226E7082224E703B046
:102C2800F0BD704700380140003C014000380240C8
:102C38000000024000230F2B00F29B80F0B52DE02E
:102C4800092600E0002606FA04F4AC4275D00568AF
:102C58005C00032606FA04F425EA0405056023FA55
:102C680006F5083550F8256003F007074FEA870C8A
:102C78000F2707FA0CF726EA070640F82560C5680B
:102C880025EA0405C560456825EA020242608268B3
:102C980022EA0404846001330F2B69D801229A4088
:102CA80002EA010732EA0104F5D14FEA930C0CF16C
:102CB8000205304C54F8255003F00304A4000F26F5
:102CC80006FA04FE0EEA05052B4EB042BAD006F508
:102CD8008066B04221D006F58066B0421FD006F566
:102CE8008066B0421DD006F58066B0421BD006F55E
:102CF8008066B04219D006F58066B04217D006F556
:102D08008066B04215D006F58066B04213D006F54D
:102D18008066B04294D00A2695E7012693E70226FA
:102D280091E703268FE704268DE705268BE706261D
:102D380089E7072687E7082685E7104C256825EAEE
:102D480007052560656825EA07056560A56825EA21
:102D58000705A560E56825EA0707E760054D0CF15A
:102D6800020455F8246026EA0E0645F824606EE74A
:102D7800F0BD70470038014000000240003C0140AF
:102D88000AB181617047090481617047024A13687A
:102D980043F48073136070470070004010B582B030
:102DA8001B4B1A6C42F080521A641B6C03F0805360
:102DB8000193019B174A136843F48033136000F0B2
:102DC800DBF80446134B5B6813F4803F08D100F02E
:102DD800D3F8001BB0F57A7FF4D9032002B010BDF8
:102DE8000C4A136843F40033136000F0C5F8044636
:102DF800084B5B6813F4003F07D100F0BDF8001BD7
:102E0800B0F57A7FF4D90320E8E70020E6E700BFB1
:102E180000380240007000400649CB6823F4E063A4
:102E28001B041B0C000200F4E0600343024A1A432F
:102E3800CA60704700ED00E00000FA0530B4154B99
:102E4800DB68C3F30223C3F10704042C28BF04245E
:102E58001D1D062D14D9033B4FF0FF3505FA04F468
:102E680021EA0401994005FA03F322EA030319430E
:102E7800002807DB0901C9B2074B195430BC704759
:102E88000023E9E700F00F000901C9B2034B195408
:102E9800F4E700BF00ED00E000E400E014ED00E01E
:102EA8000138B0F1807F0AD2064B5860064AF021FB
:102EB80082F823100020986007221A6070470120CA
:102EC800704700BF10E000E000ED00E07047000030
:102ED80010B5094B4FF0FF321A6200241C625A6287
:102EE8005C621A611C615A615C619A619C61FFF7BE
:102EF800EDFF204610BD00BF0038024010B5044663
:102F08000E4B18784FF47A73B3FBF0F30C4A106841
:102F1800B0FBF3F0FFF7C4FF68B90F2C01D901200B
:102F28000AE0002221464FF0FF30FFF787FF054BEC
:102F38001C60002000E0012010BD00BFD800002068
:102F4800E0000020DC00002008B50320FFF764FF44
:102F58000020FFF7D3FFFDF7B9FD002008BD0000F2
:102F6800034A1168034B1B780B441360704700BF7A
:102F7800781B0020D8000020014B1868704700BF5C
:102F8800781B002038B50446FFF7F6FF0546B4F174
:102F9800FF3F02D0044B1B781C44FFF7EDFF401B9A
:102FA800A042FAD338BD00BFD800002038B5044687
:102FB80083680269134342691343C2691343016872
:102FC80008689F4A024013430B602268536823F441
:102FD8004053E1680B435360A269236A1A4321688E
:102FE8008B6823F4306313438B602368954A9342BC
:102FF80019D0954A934229D0944A93423ED0944A94
:10300800934262D0934A934271D0934A934200F01C
:103018008380924A934200F09480914A934200F050
:10302800A58010253AE08F4BD3F8903003F00303C6
:10303800032B09D8DFE803F00204AE0601252DE0D2
:1030480004252BE0082529E0102527E0854BD3F837
:10305800903003F00C030C2B0ED8DFE803F0070DBB
:103068000D0D090D0D0D9D0D0D0D0B00002515E025
:10307800042513E0082511E010250FE0794BD3F85B
:10308800903003F03003202B00F0888019D8002BF3
:1030980000F08680102B40F085800425E369B3F5A5
:1030A800004F00F0AB80082D00F24081DFE815F0FA
:1030B8000701180122013E012B013E013E013E019C
:1030C8003501302B70D10825E8E7664BD3F89030EE
:1030D80003F0C003802B69D005D8002B68D0402BA3
:1030E80068D10425DAE7C02B66D10825D6E75D4B01
:1030F800D3F8903003F44073B3F5007F5ED006D860
:10310800002B5DD0B3F5807F5CD10425C6E7B3F50D
:10311800407F59D10825C1E7524BD3F8903003F4CA
:103128004063B3F5006F51D006D8002B50D0B3F5EB
:10313800806F4FD10425B1E7B3F5406F4CD1082516
:10314800ACE7484BD3F8903003F44053B3F5005F35
:1031580044D006D8002B43D0B3F5805F42D1042574
:103168009CE7B3F5405F3FD1082597E73D4BD3F87F
:10317800903003F44043B3F5004F37D005D8BBB3C4
:10318800B3F5804F36D1042588E7B3F5404F33D1E6
:10319800082583E7022581E702257FE702257DE7E9
:1031A80000257BE7102579E7102577E7022575E7E5
:1031B800002573E7102571E710256FE702256DE7F5
:1031C80000256BE7102569E7102567E7022565E705
:1031D800012563E7102561E710255FE702255DE714
:1031E80000255BE7102559E7102557E7022555E725
:1031F800002553E7102551E710254FE7082D5BD828
:10320800DFE805F005323D5A465A5A5A5100FFF791
:10321800FFF86268530803EB4003B3FBF2F39BB279
:10322800A3F110014FF6EF72914200F282809AB238
:1032380022F00F02C3F3420313432268D3607BE0FA
:10324800F369FFEF001001400044004000480040CF
:10325800004C00400050004000140140007800403D
:10326800007C004000380240FFF7E2F8626853082B
:1032780003EB4003B3FBF2F39BB20025D0E762688F
:10328800304B03EB5203B3FBF2F39BB20025C7E7C5
:10329800FEF79CFF6268530803EB4003B3FBF2F3AD
:1032A8009BB20025BCE76268530803F58033B3FB83
:1032B800F2F39BB20025B3E701250023B0E7FFF73F
:1032C800A7F8626800EB5203B3FBF2F39BB2A3F1D9
:1032D80010014FF6EF7291422DD82268D3602BE08F
:1032E800FFF7A6F8626800EB5203B3FBF2F39BB258
:1032F8000025ECE76268144B03EB5203B3FBF2F3CF
:103308009BB20025E3E7FEF761FF626800EB52031A
:10331800B3FBF2F39BB20025D9E76268530803F5C3
:103328000043B3FBF2F39BB20025D0E7012500234D
:10333800CDE7012500E001250023236663662846C2
:1033480038BD00BF0048E8010024F400436A13F0C8
:10335800010F06D00268536823F40033816A0B43D7
:103368005360436A13F0020F06D00268536823F4CF
:103378008033C16A0B435360436A13F0040F06D0CD
:103388000268536823F48023016B0B435360436A3C
:1033980013F0080F06D00268536823F40043416B0A
:1033A8000B435360436A13F0100F06D0026893680A
:1033B80023F48053816B0B439360436A13F0200F0F
:1033C80006D00268936823F40053C16B0B439360E3
:1033D800436A13F0400F0AD00268536823F480133D
:1033E800016C0B435360036CB3F5801F0BD0436A29
:1033F80013F0800F06D00268536823F40023816C11
:103408000B43536070470268536823F4C003416C50
:103418000B435360EBE72DE9F84305460F46164684
:103428009946DDF820802C68E46937EA04030CBF6C
:1034380001240024B4423CD1B8F1FF3FF3D0FFF798
:103448009BFDA0EB0900404521D8B8F1000F1ED024
:103458002B681A6812F0040FE5D0DA6912F4006FCD
:10346800E1D04FF400621A622A68136823F4D0731B
:1034780013602A68936823F00103936020236B6725
:10348800AB67EB67002385F87030032012E02A68E9
:10349800136823F4D07313602A68936823F0010338
:1034A800936020236B67AB67002385F87030032097
:1034B80000E00020BDE8F88330B583B0044600235F
:1034C800C367FFF759FD054623681B6813F0080F0B
:1034D8000CD123681B6813F0040F15D120236367F0
:1034E800A367002084F8700003B030BD6FF07E43FE
:1034F8000093034600224FF400112046FFF78BFF8C
:103508000028E6D00320EFE76FF07E4300932B46B8
:1035180000224FF480012046FFF77DFF0028DDD010
:103528000320E1E768B310B50446436F03B32423CF
:1035380063672268136823F0010313602046FFF7CE
:1035480035FD012813D0636ABBB92268536823F498
:10355800904353602268936823F02A03936022689B
:10356800136843F0010313602046FFF7A5FF10BD61
:1035780080F87030FDF7C2FAD9E72046FFF7E6FE7B
:10358800E3E7012070470000054BD3F8882042F498
:103598007002C3F888204FF000629A60704700BF3D
:1035A80000ED00E0C0B108B50346D0F8B80210B18C
:1035B8000020C3F8B802D3F8CC0210B10020C3F839
:1035C800CC0209B1C3F8B412012183F89C121A7015
:1035D8001846FDF74DFC08BD0320704710B582B0B2
:1035E8000023ADF8063059B10446C0F8B8128B6A0A
:1035F8000DF106009847C4F8CC02002002B010BDB7
:103608000320FBE708B5FDF777FC08BD034600205B
:103618001A781AB10130C0B20133F9E7704710B512
:1036280004468021FDF783FC00212046FDF77FFC3E
:1036380010BDC0B170B50D4616460446FFF7E6FF4B
:10364800013040003080287003236B7002232278F9
:1036580042B1EA5401345A1CD2B20021A9540233AF
:10366800DBB2F4E770BD704710B513460222C0F80C
:1036780094228361C3610A460021FDF760FC0020A3
:1036880010BD10B513460322C0F89422C0F8583173
:10369800C0F85C310A460021FDF759FC002010BD36
:1036A80010B5D0F8BC42D0F8C0325BB194F8000233
:1036B800FF2807D09B6894F8012221469847FF23EA
:1036C80084F80032002010BD43230380004870476F
:1036D8001C0100204323038000487047600100203C
:1036E8004323038000487047B00100200A23038069
:1036F80000487047A401002038B5D0F8BC5275B115
:103708000446FDF7E9FBC5F80C02D4F8C032DB68C3
:1037180005F50371D5F804029847002038BD032049
:10372800FCE738B5D0F8C442D0F8BC324BB301EB53
:10373800810200EB820292694AB1C1EBC10504EB38
:103748008504656CB2FBF5F405FB14226AB100240C
:10375800C3F81442D0F8C02215690A4603F504716B
:10376800D3F80802A847204638BD01EB810300EBD7
:10377800830300249C6123462246FDF7E0FB204694
:10378800F2E70320F0E7F0B583B006460C46D0F820
:10379800BC7200238DF80730ADF804300B7813F0B5
:1037A800600527D0202D58D1CA88DAB113F0800FD0
:1037B8000CD0D0F8C0329B68394660789847E288C8
:1037C80039463046FFF750FF002549E04B7887F827
:1037D80000328B7987F80132CA883946FFF751FFE2
:1037E80000253DE0D0F8C0329B6800224878984711
:1037F800002535E04F780B2F2BD8DFE807F006318E
:103808002A2A2A2A2A2A2A2A142290F89C32032BA6
:1038180003D0FFF704FF032522E0022201A9FFF7E6
:1038280023FF3D461CE090F89C32032B03D0FFF7A2
:10383800F6FE032514E001220DF10701FFF714FF3E
:103848000EE090F89C32032B0AD0FFF7E8FE032520
:1038580006E0FFF7E4FE032502E0FFF7E0FE03259C
:10386800284603B0F0BD38B504468121FDF757FB63
:103878000025258701212046FDF751FBA4F8785142
:1038880082212046FDF74BFBA4F84C50A4F84E507B
:10389800D4F8BC324BB1D4F8C0325B689847D4F83E
:1038A800BC02FCF715FDC4F8BC52002038BD70B549
:1038B80004464FF40770FCF703FDB8B30646C4F896
:1038C800BC02237CBBBB4FF400730222812120463B
:1038D800FDF71AFB012525874FF4007302222946BC
:1038E8002046FDF711FBA4F878511023A4F84E30B8
:1038F8000823032282212046FDF706FB0123A4F8B2
:103908004C30D4F8C0321B6898470023C6F81432EC
:10391800C6F81832257C15BB4FF40073D6F804227C
:1039280001212046FDF713FB284670BD0023C4F88B
:10393800BC320225F8E74023022281212046FDF708
:10394800E3FA012525874023022229462046FDF770
:10395800DBFAA4F878511023A4F84E30C8E74023C6
:10396800D6F8042201212046FDF7F1FA0025DBE70D
:1039780019B1C0F8C0120020704703207047D0F872
:10398800BC32C3F80812C3F8102200207047D0F8E0
:10399800BC32C3F804120020704710B5D0F8BC221E
:1039A80092B1047C44B94FF40073D2F80422012187
:1039B800FDF7CDFA204610BD4023D2F8042201219C
:1039C800FDF7C5FA0024F5E70324F3E7DFF834D060
:1039D800002103E00C4B5B58435004310B480C4B5F
:1039E80042189A42F6D30B4A02E0002342F8043BFD
:1039F800094B9A42F9D3FFF7C7FDFCF73DFCFDF7E9
:103A080047F8704700000820B03A0008000000207E
:103A1800F4010020F4010020801B0020FEE70000D4
:103A2800F8B500BFF8BC08BC9E467047F8B500BFA3
:083A3800F8BC08BC9E46704773
:103A400053544D3332205669727475616C20436F44
:103A50006D506F727400000053544D6963726F654E
:103A60006C656374726F6E69637300004344432036
:103A7000436F6E666967000043444320496E746576
:103A80007266616365000000000000000000000035
:103A900001020304060708090000000001020304F4
:083AA000D4CAFF7F0100000001
:043AA80061020008AF
:043AAC0039020008D3
:103AB00004000020000000000000000000000000E2
:103AC00000000000000000000000000000000000F6
:103AD00000000000000000000000000000000000E6
:103AE00000000000000000000000000000000000D6
:103AF00000000000000000000000000000000000C6
:103B000000000000000000000000000000000000B5
:103B1000000000006D0C0008790C0008350D00084D
:103B2000110D0008FD0C0008510D0008750D00086E
:103B3000850C0008050F0C000107100202000000B0
:103B400012010102020200408304405700020102F8
:103B500003010000040309041A0300000000000030
:103B60000000000000000000000000000000000055
:103B700000000000C10D0008990D00089D0D00080F
:103B8000A50D0008A10D00080100000010000000B4
:103B90000024F400B73800086F3800088F37000899
:103BA00000000000A93600082B3700080137000884
:103BB000000000000000000000000000DD360008EA
:103BC000D1360008E9360008F5360008090243003E
:103BD000020100C0320904000001020201000524B4
:103BE000001001052401000104240202052406003E
:103BF000010705820308001009040100020A000001
:103C00000007050102400000070581024000000096
:103C100009024300020100C032090400000102024F
:103C20000100052400100105240100010424020202
:103C3000052406000107058203080010090401009D
:103C4000020A0000000705010200020007058102C8
:103C5000000200000A06000200000040010000000F
:103C600009074300020104C03209040000010202F6
:103C700001000524001001052401000104240202B2
:103C8000052406000107058203080010090401004D
:103C9000020A00000007050102400000070581023A
:043CA00040000000E0
:04000005080039D5E1
:00000001FF
