:020000040804EE
:1000000000000820694B0408FF0A0408010B0408DB
:10001000030B0408050B0408070B0408000000008C
:10002000000000000000000000000000090B0408B0
:100030000B0B0408000000000D0B04080F0B040854
:10004000B94B0408B94B0408B94B0408B94B040870
:10005000B94B0408B94B0408B94B0408B94B040860
:10006000B94B0408B94B0408B94B0408B94B040850
:10007000B94B0408B94B0408B94B0408B94B040840
:10008000B94B0408B94B0408B94B0408B94B040830
:10009000B94B0408B94B0408B94B0408B94B040820
:1000A000B94B0408B94B0408B94B0408B94B040810
:1000B000B94B0408B94B0408B94B0408B94B040800
:1000C000B94B0408B94B0408B94B0408B94B0408F0
:1000D000B94B0408B94B0408B94B0408B94B0408E0
:1000E000B94B0408B94B0408B94B0408B94B0408D0
:1000F000B94B0408B94B0408B94B0408B94B0408C0
:10010000B94B0408B94B0408B94B0408B94B0408AF
:10011000B94B0408B94B0408B94B0408B94B04089F
:10012000B94B0408B94B0408B94B0408B94B04088F
:10013000B94B0408B94B0408B94B0408B94B04087F
:10014000B94B0408B94B0408B94B0408190B04084F
:10015000B94B0408B94B0408B94B0408B94B04085F
:10016000B94B0408B94B0408B94B0408B94B04084F
:10017000B94B0408B94B0408B94B0408000000004F
:10018000B94B0408B94B0408B94B0408B94B04082F
:10019000B94B0408B94B0408B94B0408B94B04081F
:1001A000B94B0408B94B0408B94B0408B94B04080F
:1001B000B94B0408B94B0408B94B0408B94B0408FF
:1001C000B94B0408B94B040800000000B94B0408FF
:1001D000B94B0408B94B0408B94B0408B94B0408DF
:1001E000B94B0408B94B0408B94B0408B94B0408CF
:0801F000B94B0408B94B0408E7
:1001F8000348044B834202D0034B03B118477047AE
:10020800F4010020F4010020000000000548064920
:100218000B1AD90F01EBA301491002D0034B03B10C
:1002280018477047F4010020F40100200000000086
:1002380010B5064C237843B9FFF7DAFF044B13B126
:100248000448AFF300800123237010BDF40100209F
:1002580000000000BC4B040808B5044B1BB104495E
:100268000448AFF30080BDE80840CFE70000000075
:10027800F8010020BC4B040870B50D4E0D4D761BDF
:10028800B61006D00024013455F8043B9847A6421E
:10029800F9D1094E094D761B04F08CFCB61006D036
:1002A8000024013455F8043B9847A642F9D170BDA3
:1002B8003C4C04083C4C0408404C04083C4C0408E2
:1002C800024B0146186800F0B1B800BF00000020DA
:1002D800024B0146186800F053B800BF0000002028
:1002E800F0B4860746D0541E002A3CD0CAB2034652
:1002F80002E014F1FF3436D303F8012B9D07F8D13F
:10030800032C29D9CDB245EA05250F2C45EA054528
:1003180033D9A4F11006360903F1200707EB0617B5
:1003280003F1100242E9045542E902551032BA427B
:10033800F8D1721C14F00C0F03EB021204F00F0634
:1003480013D0331F23F003030433134442F8045B30
:100358009342FBD106F003042CB1C9B21C4403F844
:10036800011B9C42FBD1F0BC704734461346002C5D
:10037800F3D1F8E714460346C2E71A462646E0E7F3
:1003880000293CD038B551F8043C0C1F002BB8BFED
:10039800E418054600F0C0F8234B1A682AB1A242B7
:1003A8000DD921686018824223D0626028461C60FB
:1003B800BDE8384000F0B2B8A34203D81A465368E3
:1003C800002BF9D111685018A04219D024D82168FF
:1003D8006018834206D0636054602846BDE8384000
:1003E80000F09CB8D3E900030144636021605460C5
:1003F800F3E7D2E90002014462602160D6E7704762
:1004080020680144501883421160E6D1D3E9000303
:10041800014453601160E0E70C232B602846BDE8D7
:10042800384000F07BB800BF10020020F8B5CD1CA2
:1004380025F0030508350C2D38BF0C25002D064680
:1004480033DBA94231D82A4F00F066F83A6852B136
:1004580013685B1B04D43FE023685B1B29D5224645
:100468005468002CF8D1796800293BD029463046D9
:1004780000F040F8431C28D0C41C24F00304A04218
:1004880005D0211A304600F035F801301DD025601E
:10049800304600F043F804F10B0020F00700231D5C
:1004A800C21A01D01B1AA350F8BD0C2232600020DA
:1004B800F8BD0B2B05D8A242636811D05360E7E75B
:1004C800144623601C442560E2E70C233046336061
:1004D80000F024F80020F8BD0B2BF1D8536814461F
:1004E8003B60D5E7304600F005F87860BEE700BF0E
:1004F8001002002038B5074C002305460846236043
:1005080000F00EF8431C00D038BD2368002BFBD048
:100518002B6038BD781B0020704700BF704700BFB4
:10052800044A05491368002B08BF0B46184410609D
:100538001846704718020020801B002053B94AB99A
:10054800002908BF00281CBF4FF0FF314FF0FF30D3
:1005580000F06EB9ADF1080C6DE904CE00F006F8B4
:10056800DDF804E0DDE9022304B070472DE9F04727
:10057800089D04468C46002B40F083808A4217462B
:1005880047D9B2FA82F242B1C2F1200024FA00F04F
:100598009140974040EA010C94404FEA1748230CD9
:1005A800BCFBF8F61FFA87FE08FB16C143EA0143B5
:1005B80006FB0EF1994209D9FB1806F1FF3080F0CD
:1005C8001981994240F21681023E3B445B1AA4B25B
:1005D800B3FBF8F008FB103344EA034400FB0EFEBB
:1005E800A64509D93C1900F1FF3380F00581A645DD
:1005F80040F2028102383C4440EA0640A4EB0E0473
:1006080000261DB1D4400023C5E900433146BDE8AA
:10061800F08702B9FFDEB2FA82F2002A50D1CB1B72
:100628004FEA174E1FFA87F80126B3FBFEFC210C90
:100638000EFB1C3341EA034108FB0CF38B4207D93C
:1006480079180CF1FF3002D28B4200F2E98084461F
:10065800C91AA3B2B1FBFEF00EFB101143EA014424
:1006680008FB00F8A04507D93C1900F1FF3302D276
:10067800A04500F2D9801846A4EB080440EA0C40D3
:10068800BFE78B4209D9002D00F0B1800026C5E9EB
:10069800000130463146BDE8F087B3FA83F6002EF4
:1006A8004AD18B4202D3824200F2B880841A61EBAD
:1006B800030101208C46002DA8D0C5E9004CA5E710
:1006C800C2F1200320FA03F6974001FA02F04FEA3C
:1006D800174ED9403043030CB1FBFEF61FFA87F8DA
:1006E8000EFB161143EA014306FB08F1994204FA8E
:1006F80002F409D9FB1806F1FF3C80F08D8099427D
:1007080040F28A80023E3B445B1A81B2B3FBFEF0A2
:100718000EFB103341EA034100FB08F38B4207D973
:10072800791800F1FF3C73D28B4271D902383944F1
:10073800CB1A40EA064678E7C6F1200C03FA06F41D
:1007480022FA0CF31C4320FA0CF701FA06F34FEADD
:10075800144E21FA0CF11F433B0CB1FBFEF91FFAB2
:1007680084F80EFB191143EA014109FB08FA8A458E
:1007780002FA06F200FA06F308D9611809F1FF3007
:1007880048D28A4546D9A9F102092144A1EB0A01B8
:10079800BFB2B1FBFEF00EFB101147EA014700FBA8
:1007A80008F8B84507D9E71900F1FF312ED2B84546
:1007B8002CD90238274440EA0940A7EB0807A0FBD8
:1007C80002894F45C64649461AD317D05DB1B3EBE7
:1007D8000E0267EB010707FA0CFCF2404CEA020232
:1007E800F740C5E9002700263146BDE8F0872E46C8
:1007F80028460BE70646E9E61846FDE64345E5D2F6
:10080800B8EB020E69EB04010138DFE70846D2E7CE
:1008180060468DE78146B9E7664675E730464AE7A0
:10082800ACF1020C394413E702383C4424E700BF1A
:10083800704700BF2DE9F04F8DB00024079408944D
:1008480009940A940B94524B1A6B42F004021A63EF
:100858001A6B02F004020192019A1A6B42F08002AC
:100868001A631A6B02F080020292029A1A6B42F023
:1008780001021A631A6B02F001020392039A1A6BBF
:1008880042F002021A631A6B02F002020492049AFE
:100898001A6B42F008021A631A6B02F008020592FA
:1008A800059A1A6B42F040021A631B6B03F040036F
:1008B8000693069BDFF8E890224644F281014846F9
:1008C80002F0A6FE334D22464021284602F0A0FE43
:1008D8004FF4005BCDF81CB02F4B08930994DFF858
:1008E800C4A007A9504602F0A3FD322307934FF096
:1008F8000208CDF82080099403270A970B260B9647
:1009080007A9504602F094FD86230793CDF820806E
:1009180009940A970B9607A9204802F089FD44F22A
:10092800810307934FF0010ACDF820A009940A9497
:1009380007A9484602F07CFDCDF81CB0CDF8208010
:1009480009940A970B9607A9484602F071FD4023BF
:100958000793CDF820A009940A9407A9284602F025
:1009680067FD802307930894099407A9284602F095
:100978005FFD4FF420530793CDF8208009940A9720
:100988000B9607A9284602F053FD0DB0BDE8F08F7D
:100998000038024000180240000011100000024018
:1009A800000402400008024008B50948094B0360EA
:1009B8004FF4E133436000238360C36003610C227A
:1009C80042618361C3610362436203F0DDF908BDDC
:1009D8002002002000480040044B1B6828B1034B4C
:1009E8001B68C3F30043C01AF8E7704710E000E043
:1009F80030B5B9B0342200212BA8FFF771FC0024D0
:100A080026942794289429942A949022214602A86F
:100A1800FFF766FC02F00AFE204B1A6C42F0805287
:100A28001A641B6C03F080530093009B1C4B1A68DC
:100A380042F440421A601B6803F440430193019B4F
:100A480001232B934FF4A0232C93022531954FF4C7
:100A58008003329304233393D823349335950923A1
:100A680036932BA801F07EFE02F0E8FD0F232693B3
:100A7800279528944FF4A05329934FF480532A9331
:100A8800072126A802F0F6F8064B02931594219444
:100A980002A802F0CBF939B030BD00BF00380240DF
:100AA800007000400001200008B502F093FEFFF737
:100AB8009FFFFFF7BFFEFFF777FF00F081F80C4CB0
:100AC8004FF48041204602F0A9FDC820FFF784FFBB
:100AD8008021204602F0A2FDC820FFF77DFF0121FA
:100AE800204602F09BFDC820FFF776FFE7E700BF2E
:100AF8000004024070477047FEE7FEE7FEE7FEE7A6
:100B080070477047704708B502F070FE08BD0000D6
:100B180008B5024800F090FC08BD00BF701700201F
:100B280082B00A4B1A6C42F080521A641A6C02F0B6
:100B380080520092009A5A6C42F480425A645B6C6C
:100B480003F480430193019B02B0704700380240D0
:100B580000B589B000230393049305930693079384
:100B68000268154B9A4202D009B05DF804FB03F500
:100B7800F8331A6C42F480221A641A6C02F4802248
:100B88000192019A1A6B42F008021A631B6B03F078
:100B980008030293029B4FF44073039302230493C8
:100BA80000230593032306930723079303A9034808
:100BB80002F03EFCD8E700BF00480040000C0240AD
:100BC80008B500220F49104803F01EF970B90F4903
:100BD8000D4803F035F960B90D490B4803F092FF51
:100BE80050B9094803F040F948B908BDFFF782FF3A
:100BF800EDE7FFF77FFFEFE7FFF77CFFF1E7FFF790
:100C080079FFF2E764000020A0020020E400002041
:100C1800C400002012230B80004870479000002079
:100C280004230B8000487047A40000200C230B808D
:100C380000487047840000200023934217D230B444
:100C48000BE0373401F8134000015C000134002543
:100C58000D550133DBB2934207D2040FB0F1204F98
:100C6800EFD2303401F81340EEE730BC70477047DC
:100C780038B50A4B186804331C6804331B68C0185D
:100C880000D138BD064D0822A91CFFF7D5FF042264
:100C980005F112012046FFF7CFFFF2E720F4F01F1D
:100CA800A800002008B51A230B80FFF7E1FF0148D0
:100CB80008BD00BFA800002008B50A4628B90549A4
:100CC800054803F05AFD034808BD0249024803F0ED
:100CD80054FDF8E770050020D44B040810B50A4607
:100CE800034C2146034803F048FD204610BD00BFD1
:100CF80070050020EC4B040808B50A4628B90549D8
:100D0800054803F03AFD034808BD0249024803F0CC
:100D180034FDF8E770050020004C040808B50A46C1
:100D280028B90549054803F028FD034808BD0249CC
:100D3800024803F022FDF8E7700500200C4C040877
:100D480000207047002070470020704710B501460A
:100D5800044C204603F0E5FE204603F0E8FE0020A0
:100D680010BD00BFA002002010B5064C00220649A5
:100D7800204603F0CEFE0549204603F0D2FE0020AF
:100D880010BD00BFA0020020700F002070070020D7
:100D980008B5FFF72DFE08BD70B588B00023039392
:100DA80004930593069307930368B3F1A04F01D00A
:100DB80008B070BD1E4C236B43F001032363236B03
:100DC80003F001030093009B4FF4E85303930223BD
:100DD800049300250595032306930A230793154ECC
:100DE80003A9304602F024FB4FF4007303930495E3
:100DF800059503A9304602F01BFB636B43F08003A3
:100E08006363636B03F080030193019B636C43F49A
:100E180080436364636C03F480430293029B2A4615
:100E28002946432002F05AFC432002F089FCBFE720
:100E3800003802400000024008B500F57171D0F892
:100E4800000403F026F808BD08B5C1EBC10300EBA8
:100E58008303D3F80822D0F8000403F046F808BD4D
:100E680008B5C1EBC10300EB83039A6CD0F800040A
:100E780003F074F808BD08B5D0F8000403F00AF9C7
:100E880008BD10B50446C3683BB1022B01D101214E
:100E980004E0FFF72FFE012100E00021D4F8000450
:100EA80003F0E1F8D4F8000403F0B4F810BD000032
:100EB80010B50446D0F8000403F0D8F82268D2F838
:100EC800003E43F00103C2F8003E236A23B1034AFF
:100ED800136943F00603136110BD00BF00ED00E085
:100EE80008B5D0F8000403F0CAF808BD08B5D0F872
:100EF800000403F0DFF808BD08B5D0F8000403F0DB
:100F0800D7F808BD08B5D0F8000403F0D5F808BD37
:100F180008B5D0F8000403F0D1F808BD02780AB18A
:100F28000020704710B503461548C0F80034C3F8D0
:100F3800C4024FF0A0430360062343600222C2604C
:100F48000023036182610122C26103624362C262BB
:100F5800036300F01DF980B9094C8021204600F098
:100F680078FE40220021204600F04FFE8022012119
:100F7800204600F04AFE002010BDFFF7BBFDEBE75E
:100F880070170020D0F8C43211F0800F08D101F09A
:100F98007F01C1EBC10103EB810191F8FE017047AC
:100FA80001F07F01C1EBC10103EB810191F83E0023
:100FB800704708B5D0F8C40200F074FD08BD000001
:100FC80010B5044611B1012916D010BD036A5BB9EA
:100FD8002268D2F8003E23F00103C2F8003ED4F89C
:100FE800000403F04CF8F0E7FFF7D2FE0C4A13694F
:100FF80023F006031361EBE70268D2F8003E43F0E2
:101008000103C2F8003ED0F8000403F02FF8236A69
:10101800002BDAD0024A136943F006031361D4E7C0
:1010280000ED00E0032805D8DFE800F0050402051C
:10103800012070470320704708B5D0F8C40200F0BB
:1010480041F9FFF7EFFF08BD10B514461A462346CD
:10105800D0F8C40200F07BFCFFF7E4FF10BD08B530
:10106800D0F8C40200F0B6FCFFF7DCFF08BD08B5F5
:10107800D0F8C40200F04AFDFFF7D4FF08BD08B558
:10108800D0F8C40200F086FDFFF7CCFF08BD08B514
:10109800D0F8C40200F047FCFFF7C4FF08BD08B54C
:1010A800D0F8C40200F007FDFFF7BCFF08BD08B583
:1010B800D0F8C40200F0C7FCFFF7B4FF08BD2DE963
:1010C800F04782B0D0F80080C1EBC10300EB830386
:1010D8005A6D1B6D9A4255D807460C46C1469B1A55
:1010E800C1EBC10200EB8202526C9A4200D31A464D
:1010F80002F1030A4FEA9A0A15E006F1030A4FEAD9
:101108009A0AC4EBC40507EB8505A96C3B7C0093E0
:10111800B3B2E2B2404601F0FDF8AB6C3344AB64C5
:101128006B6D1E446E6509EB441303F510639B69F0
:101138009BB2534512D3C4EBC40207EB8202516D34
:10114800136D99420AD24BB15B1AC4EBC40207EB88
:101158008202566C9E42D0D31E46CEE7C4EBC40032
:1011680007EB80073A6D7B6D9A420FD804F00F04A5
:101178000123A340D8F8344824EA0304C8F83448C3
:10118800002000E0012002B0BDE8F0870020FAE767
:10119800F0B58BB0002800F093800546046890F8FD
:1011A800BD332BB3032385F8BD33E36B13F4807F82
:1011B80001D100232B61286800F038FE2C4654F832
:1011C800107B6E460FCC0FC60FCC0FC694E80300F9
:1011D80086E803002B1D0ECB384600F071FD04464F
:1011E80058B1022385F8BD33012420460BB0F0BD69
:1011F80080F8BC33FFF7D0FDD4E70021286800F061
:101208001BFE234616E0C3EBC30205EB8202012155
:1012180082F83D1082F83C30A2F84230002182F872
:101228003F1051649164C3EBC30205EB8202116560
:101238000133DBB269688B42E5D316E0C4EBC40323
:1012480005EB8303002283F8FD2183F8FC4183F832
:10125800FF21C3F80422C3F80822C4EBC40305EB3A
:101268008303C3F810220134E4B2A142E6D82C4625
:1012780054F8107B6E460FCC0FC60FCC0FC694E8FF
:10128800030086E803002B1D0ECB384600F01AFE3B
:10129800044660B9002385F83830012385F8BD334A
:1012A8006B6A012B08D0286801F0DAF99DE7022360
:1012B80085F8BD33012498E7284600F0CFFCF2E713
:1012C800012492E790F8BC33012B0ED010B50446E8
:1012D800012380F8BC33006801F0B6F9206800F0FB
:1012E8009FFD002084F8BC0310BD02207047000059
:1012F80070B504460D460068066C00EB411303F513
:1013080030639A682169012911D035498E4250D03D
:101318003DB9C5EBC50304EB8303D3F81032002BAA
:1013280058D0E9B22046FFF78FFD002070BD12F0BB
:10133800080F09D02B498E42F7D912F4004FF4D088
:101348004FF400429A60F0E712F0200F02D02022FA
:101358009A60EAE712F0280FE7D122498E4206D9AF
:1013680012F4004F03D04FF400429A60DDE7C5EB5A
:10137800C50204EB8202D2F804121B69C3F31203FC
:10138800C91AC2F81412D2F80412D2F808320B445F
:10139800C2F8083215B9D2F8103223B1E9B22046A2
:1013A800FFF752FDC1E704F57172012101F0AAF9B6
:1013B800F4E712F4004F03D04FF400429A60B4E708
:1013C80012F0200F01D020229A60E9B22046FFF7E0
:1013D8003BFDAAE704F57172002101F093F9A0E73B
:1013E8000A31544F0A30544F38B5044603681D6C0F
:1013F80003EB4113D3F8081B0E4A954207D903F5AE
:10140800306311F4004F02D04FF400429A60204636
:10141800FFF712FD074B9D4202D92369012B01D02A
:10142800002038BD04F571720121206801F06AF9C5
:10143800F6E700BF0A30544F2DE9F04F83B0044659
:101448000568284601F049F910B103B0BDE8F08FEE
:101458002F460646206801F00FF90028F5D02068CD
:1014680001F00AF910F0020F04D02268536903F062
:1014780002035361206801F0FFF810F0100F15D037
:101488002268936923F010039361D5F8208008F04F
:101498000F09C8F34343022B00F08580062B00F0A8
:1014A800AA802268936943F010039361206801F0D1
:1014B800E3F810F4002F40F0B080206801F0DCF869
:1014C80010F4802F40F0F480206801F0D5F800284F
:1014D800C0F26081206801F0CFF810F4006F0AD0E4
:1014E800D5F8083813F0010F40F06E81226853696F
:1014F80003F400635361206801F0BEF810F0006F38
:1015080015D02268536903F00063536194F8F433EB
:10151800002B40F05D81012184F8F41323685B6D92
:10152800C3F38303C4F8F8332046FFF749FD206866
:1015380001F0A2F810F4805F40F04E81206801F0BD
:101548009BF810F4005F40F0AC81206801F094F83B
:1015580010F0080F40F0BD81206801F08DF810F4FC
:10156800801F40F0BF81206801F086F810F4001F4A
:1015780040F0C281206801F07FF810F0804F40F001
:10158800C581206801F078F810F0040F3FF45DAFD2
:1015980023685D6815F0040F40F0C1812268536824
:1015A8002B43536051E747F6F07318EA030F3FF4F3
:1015B80078AF4FEA181B4FEAC9030193C9EBC90A70
:1015C80004EB8A0AC8F30A12DAF80812284600F06F
:1015D800BFFFCBF30A0BDAF808325B44CAF80832CB
:1015E800019BA3EB090304EB8303D3F814325B4498
:1015F800CAF8143255E7082204F57171284600F03C
:10160800A7FFC8F30A18C9EBC90204EB8202D2F893
:1016180014324344C2F8143243E7206801F030F82A
:101628008046B14617E007EB49130122C3F8082B9F
:1016380049462046FFF75CFE1DE007EB49130822E8
:10164800C3F8082B49462046FFF7CEFE16E009F1FD
:1016580001094FEA5808B8F1000F3FF42EAF18F00F
:10166800010FF4D05FFA89F1206801F019F8824679
:1016780010F0010FD7D11AF0080FDED11AF0100FB1
:1016880004D007EB49131022C3F8082B1AF0200FD7
:1016980004D007EB49132022C3F8082B1AF4005F83
:1016A800D5D007EB49134FF40052C3F8082BCEE707
:1016B800206800F0EDFF8046B1462AE059462046F2
:1016C800FFF7CEFB1AF0080F04D007EB49130822E6
:1016D800C3F808291AF0100F04D007EB4913102299
:1016E800C3F808291AF0400F04D007EB4913402229
:1016F800C3F808291AF0020F04D007EB4913022295
:10170800C3F808291AF0800F3FD109F101094FEAFF
:101718005808B8F1000F3FF4D7AE18F0010FF4D015
:101728005FFA89FB5946206800F0C3FF824610F033
:10173800010FC7D009F00F03012101FA03F2D7F80E
:10174800343823EA0203C7F8343807EB4913C3F8DF
:10175800081923698B42B1D1C9EBC90304EB830390
:10176800596C9A6C0A449A64B9F1000FA6D1C9EB76
:10177800C90304EB83031B6D002B9FD104F5717221
:101788000121206800F0BEFF98E749462046FFF790
:1017980096FCBAE7D5F8043823F00103C5F80438F5
:1017A80094F8F433012B08D02046FFF799FB226800
:1017B800536903F0004353618CE6002184F8F41365
:1017C8002046FFF7FDFBF2E72046FFF771FB8DE6A9
:1017D8002046FFF76DFBAAE605F50068D8F8043047
:1017E80023F00103C8F804301021206800F03CFB06
:1017F80020E007EB46134FF67F31C3F80819D3F8FA
:10180800002922F40012C3F80029D3F8002942F075
:101818000062C3F80029C3F8081BD3F8002B22F490
:101828000012C3F8002BD3F8002B42F00062C3F873
:10183800002B01366368B342DBD8D8F81C3043F07C
:101848000113C8F81C30236BEBB1D8F8843043F08F
:101858000B03C8F88430D8F8443043F00B03C8F8B9
:101868004430D5F8003823F4FE63C5F8003804F591
:101878007172217C206800F045FF2268536903F4E7
:10188800805353615AE6D8F8142042F22B031343CD
:10189800C8F81430D8F8103043F00B03C8F81030EB
:1018A800DFE7206800F01EFF206800F0E1FBE06041
:1018B800256801F095FA0146227B284600F03EFA99
:1018C8002046FFF7DEFA2268536903F40053536198
:1018D8003BE62046FFF7CFFA2268536903F0080376
:1018E800536139E600212046FFF706FB2268536959
:1018F80003F48013536136E600212046FFF7F6FA19
:101908002268536903F40013536133E62046FFF756
:10191800F9FA2268536903F08043536131E620469F
:10192800FFF7F6FA3AE690F8BC33012B0DD010B564
:101938000446012380F8BC3380F83810006800F0B2
:1019480073FE002084F8BC0310BD02207047F8B570
:1019580007460C4611F0800F27D101F00F05C5EBA3
:10196800C506B60006F5FC760644311DC5EBC5056F
:1019780000EB8505002085F8FD0104F00F040C70CC
:101988008A60CB704A7802B1CC80022B1DD097F8C0
:10199800BC33012B1CD0012387F8BC33386800F016
:1019A80077FB002087F8BC03F8BD01F00F00C0EBFF
:1019B800C0018900383139440431C0EBC00007EB5D
:1019C8008000012580F83D50D7E700230B71DEE742
:1019D8000220E9E710B504460A4611F0800F20D12D
:1019E80001F00F00C0EBC0039B0003F5FC73234418
:1019F800191DC0EBC00004EB8000002380F8FD3106
:101A080002F00F020A7094F8BC33012B19D001239D
:101A180084F8BC33206800F083FB002084F8BC0302
:101A280010BD01F00F00C0EBC0039B003833234406
:101A3800191DC0EBC00004EB8000012380F83D3085
:101A4800DEE70220ECE738B501F00F04C4EBC4016F
:101A5800890001F5FC7101440431C4EBC40500EBB5
:101A68008505C5F80822C5F810320023C5F81432D8
:101A780085F8FD3185F8FC410369012B06D064B96E
:101A8800DAB2006800F0BAFB002038BDC4EBC40528
:101A980000EB8505C5F80C22F1E7DAB2006800F022
:101AA8004DFCF1E701F00F01C1EBC10100EB810131
:101AB800D1F81402704738B501F00F04C4EBC40123
:101AC8008900383101440431C4EBC40500EB8505B5
:101AD800AA642B6500236B65012385F83D3085F8E2
:101AE8003C400369012B06D05CB9DAB2006800F00B
:101AF80085FB002038BDC4EBC40500EB8505EA640E
:101B0800F2E7DAB2006800F019FCF2E738B501F044
:101B18000F054268954239D804460B4611F0800FEC
:101B28001FD1C1EBC101890001F5FC7101440431E9
:101B3800C3EBC30300EB8303002283F8FD210123D9
:101B48008B700D7094F8BC33012B21D0012384F8DD
:101B5800BC33206800F00DFD8DB1002084F8BC0373
:101B680038BDC5EBC5018900383101440431C5EBE6
:101B7800C50300EB8303012283F83D20DFE704F56A
:101B88007172217C206800F0BDFDE6E70120E7E7DF
:101B98000220E5E701F00F034268934231D810B5FF
:101BA800044611F0800F1ED1C3EBC301890001F573
:101BB800FC7101440431C3EBC30200EB8202002034
:101BC80082F8FD0100228A700B7094F8BC33012B57
:101BD80019D0012384F8BC33206800F0F7FC0020FA
:101BE80084F8BC0310BDC3EBC3018900383101443C
:101BF8000431C3EBC30200EB8202012082F83D00EE
:101C0800E0E7012070470220ECE730B40468606A1E
:101C180019B940EA0240A06218E00D46A36A00EB39
:101C280013400023691E8B4209D203F1400104EBE3
:101C38008101496800EB11400133DBB2F2E740EA69
:101C4800024005F13F0104EB81014860002030BCEF
:101C58007047036859620020704700000346026815
:101C68000121C0F8FC13002083F8F403936943F0C2
:101C780000639361516D024B0B435365704700BF7E
:101C880003000010002301330C4A934211D8026963
:101C9800002AF8DA036943F00103036100230133E2
:101CA800064A934207D8026912F0010FF7D10020C3
:101CB8007047032070470320704700BF400D0300A2
:101CC80084B010B5044603A880E80E00089B012BD9
:101CD8001DD1A36B23F48033A363E268164B134032
:101CE800E360E36823F44013E3600F9B012B09D002
:101CF8002046FFF7C7FF069B012B14D0BDE8104014
:101D080004B07047E36843F48013E360F0E7E368E6
:101D180043F04003E3602046FFF7B4FFA36B43F4AE
:101D28008033A363E7E7A36843F00603A360A368CF
:101D380043F02003A360E1E7BFFFBDFF022A0AD0FA
:101D48000921C26822F47052C260C36843EA812341
:101D5800C36000207047204B0B44204A934229D986
:101D68001F4B0B441F4A934226D91F4B0B441F4A53
:101D7800934223D91E4B0B441E4A934220D31E4B39
:101D88000B441E4A93421DD91D4B0B441D4A9342D6
:101D98001AD31D4B0B441D4A934217D31C4B0B44BB
:101DA8001C4A934214D31C4B0B441C4A934211D235
:101DB8000721C6E70F21C4E70E21C2E70D21C0E7BE
:101DC8000C21BEE70B21BCE70A21BAE70921B8E7D5
:101DD8000821B6E70621B4E7405327FFFF340C007B
:101DE800401E1BFF3F420F0000DC0BFF7F4F12001D
:101DF800808CF9FE20D6130060B6E5FE5FE316007E
:101E080000D3CEFE40771B00C05BB3FEC09121001B
:101E180000CA91FE20753800E05459FEE09C41004C
:101E2800836843F00103836000207047836823F0D0
:101E3800010383600020704708B5C36823F0C043DE
:101E4800C360012909D069B9C36843F08043C360FE
:101E58003220FEF7C1FD002008BDC36843F00053DF
:101E6800C360F5E70120F7E7890141F0200101612E
:101E780000230133054A934205D8026912F0200F66
:101E8800F7D1002070470320704700BF400D0300C2
:101E98001023036100230133054A934205D80269E0
:101EA80012F0100FF7D1002070470320704700BFD1
:101EB800400D0300D0F800381943C0F8001800207E
:101EC8007047000084B02DE9F843044609A880E86B
:101ED8000E002546002306E003F1400204EB8202CF
:101EE8000021516001330E2BF6D9DDF84C80B8F192
:101EF800000F26D1D4F8043843F00203C4F804389C
:101F0800A36B23F40013A363236843F04003236007
:101F1800236843F0800323600023C4F8003E04F5DF
:101F28000066D4F80038C4F800380E9B012B0DD099
:101F3800032B1CD10B9BABB900212046FFF7BAFF3E
:101F480019E0A36B43F40013A363E5E70B9B23B9E4
:101F580000212046FFF7AEFF0DE001212046FFF7E4
:101F6800A9FF08E001212046FFF7A4FF03E00321B1
:101F78002046FFF79FFF10212046FFF775FF814697
:101F880008B14FF001092046FFF782FF08B14FF072
:101F98000109002333617361F3610AE0C3B94FF0AB
:101FA8000060C2F8000900220A614FF67F328A6099
:101FB8000133099F9F4210D905EB431202F51061C6
:101FC800D2F800090028E9DB0020C2F80009EAE796
:101FD8004FF09040C2F80009E5E700230AE0BBB1E2
:101FE8004FF09040C2F8000B00220A614FF67F3292
:101FF8008A6001339F4210D905EB431202F5306124
:10200800D2F8000B0028EADB0020C2F8000BEBE74F
:102018004FF00060C2F8000BE6E7336923F48073E1
:1020280033610023A3616FF0804363610C9B1BB98C
:10203800A36943F01003A361A2690B4B1343A36187
:102048000F9B1BB1A36943F00803A361B8F1010F0B
:1020580004D04846BDE8F84304B07047A269034B72
:102068001343A361F5E700BF00383C80040000403B
:10207800D0F8083813F0060305D0062B18BF022B3A
:1020880003D102207047002070470F2070470000DE
:1020980070B40C784B78012B20D0D0F81C3804F0A1
:1020A8000F060122B24043EA0243C0F81C3800EB95
:1020B8004410D0F8003B13F4004F0CD1D0F8002B9B
:1020C8008B68C3F30A03C97843EA81431343134A6D
:1020D8001A43C0F8002B002070BC7047D0F81C28A9
:1020E80004F00F06B3409BB21343C0F81C3800EB52
:1020F8004410D0F8003913F4004FECD1D0F800297F
:102108008B68C3F30A03C97843EA814343EA8454DA
:102118001443024B2343C0F80039DCE70080001069
:1021280030B40B784A78012A24D000EB4313D3F853
:10213800002B002A50DBD0F83C580A7802F00F0236
:10214800012404FA02F225EA0242C0F83C28D0F839
:102158001C28097801F00F018C4022EA0444C0F8D9
:102168001C48D3F8001B234A0A40C3F8002B002060
:1021780030BC704700EB4313D3F80029002A1EDB5C
:10218800D0F83C580A7802F00F02012404FA02F24F
:1021980092B225EA0202C0F83C28D0F81C28097837
:1021A80001F00F018C40A4B222EA0404C0F81C48D4
:1021B800D3F80019104A0A40C3F80029D7E7D3F822
:1021C800002942F00062C3F80029D3F8002942F040
:1021D8008042C3F80029D3E7D3F8002B42F000620D
:1021E800C3F8002BD3F8002B42F08042C3F8002B31
:1021F800A1E700BF0078F3EF007833EC70B40B78F8
:102208004C78012C24D000EB431000F530631D6995
:102218003E4C2C401C611D693D4C2C401C614C6996
:102228000CB18C684C611C6944F400241C611C6965
:102238008D68C5F312052C431C61012A61D0D0F8C2
:10224800003B43F00443C0F8003B002070BC7047DB
:102258004C695CBB00EB4314D4F810692C4D354035
:10226800C4F81059D4F8105945F40025C4F8105989
:10227800D4F81069254D3540C4F81059012A31D0D9
:1022880000EB4313D3F8002942F00442C3F80029B5
:102298004B69002BD9D0D0F834380A7802F00F01F6
:1022A80001228A401343C0F83438CEE700EB4314C8
:1022B80004F510642669154D354025612669144DCD
:1022C800354025614E698D68AE4200D94D6125695A
:1022D80045F40025256125694E69C6F31206354384
:1022E8002561CBE70A691AB100EB4311C1F814293B
:1022F80000EB4310D0F8002942F00442C0F800294E
:10230800A3E7CA68002A9AD05A6198E70000F8FF44
:10231800FFFF07E070B49DF80C4064B903339D08D3
:10232800AC4208D200EB023303F5805351F8046B3A
:102338001E600134F4E7002070BC7047F0B583B02C
:102348000B784C78012C29D000EB431303F530644B
:1023580026697C4D3540256126697B4D35402561D0
:102368004D69002D40F0BF8025698E68C6F31206BE
:1023780035432561256945F400252561012A00F0CA
:10238800C780CA78012A00F0C980D3F8002B42F030
:102398000442C3F8002B002003B0F0BD4C6974BBA5
:1023A80000EB4314D4F81069674D3540C4F8105950
:1023B800D4F8105945F40025C4F81059D4F8106918
:1023C800604D3540C4F81059012A4AD000EB431338
:1023D800D3F8004944F00444C3F80049CC78012CF0
:1023E80068D04B69002BD6D0D0F83428097801F092
:1023F8000F040121A1400A43C0F83428CBE700EBC1
:102408004314D4F810694F4D3540C4F81059D4F826
:1024180010694D4D3540C4F81059D4F810694D690C
:102428008F683D44013DB5FBF7F5484F07EAC545C0
:102438003543C4F81059D4F810594E69C6F312063A
:102448003543C4F8105904F51064CD78012DBBD17B
:10245800256925F0C0452561256945F000552561A8
:10246800B2E70A691AB100EB4314C4F81429CA7810
:10247800012A08D000EB4313D3F8002942F00442A4
:10248800C3F8002987E7D0F8082812F4807F08D11C
:1024980000EB4311D1F8002942F00052C1F800299D
:1024A800E8E700EB4311D1F8002942F08052C1F867
:1024B8000029DFE7D0F8084814F4807F0CD1D3F85E
:1024C800004944F00054C3F8004900928B8A0A7806
:1024D800C968FFF71FFF5EE7D3F8004944F080544E
:1024E800C3F80049F1E78E683544013DB5FBF6F5C0
:1024F8002669164F07EAC5473E43266127698E6855
:10250800ADB206FB05F5C5F312053D43256135E778
:10251800CA68002A3FF435AF626132E7D0F808286C
:1025280012F4807F06D1D3F8002B42F00052C3F892
:10253800002B2AE7D3F8002B42F08052C3F8002B77
:1025480023E700BF0000F8FFFFFF07E00000F81FC7
:1025580010B4033294080023A34206D200F5805237
:10256800126841F8042B0133F6E708465DF8044B7E
:1025780070470B784A78012A14D000EB4310D0F842
:10258800002B002A06DB2BB1D0F8003B23F0804358
:10259800C0F8003BD0F8003B43F40013C0F8003B00
:1025A8000020704700EB4310D0F80029002A06DB12
:1025B8002BB1D0F8003923F08043C0F80039D0F8A7
:1025C800003943F40013C0F80039E9E70B784A787A
:1025D800012A0ED000EB4310D0F8003B23F400137F
:1025E800C0F8003BCB78023BDBB2012B15D90020A9
:1025F800704700EB4310D0F8003923F40013C0F8FB
:102608000039CB78023BDBB2012BF0D8D0F8003987
:1026180043F08053C0F80039E9E7D0F8003B43F0B5
:102628008053C0F8003BE2E7D0F8003823F4FE639B
:10263800C0F80038D0F80038090101F4FE611943E8
:10264800C0F800180020704708B5D0F8043823F007
:102658000203C0F804380320FEF7BEF9002008BDC5
:1026680008B5D0F8043843F00203C0F80438032052
:10267800FEF7B2F9002008BD426980691040704732
:10268800D0F8183800F50060C0691840000C704791
:10269800D0F8183800F50060C069184080B270475B
:1026A80000EB4111D1F8082B00F50060406910409B
:1026B800704710B4D0F81048D0F8343801F00F0241
:1026C800D340DB01DBB2234300EB411000F510607F
:1026D800806818405DF8044B7047406900F00100BD
:1026E80070470000D0F80029054B1340C0F80039A6
:1026F800D0F8043843F48073C0F8043800207047D9
:1027080000F8FFFF10B4046C154B9C4203D9D0F8B5
:10271800003B002B16DB0024C0F8104BD0F8104B00
:1027280044F40024C0F8104BD0F8104B44F01804BF
:10273800C0F8104BD0F8104B44F0C044C0F8104B10
:10274800012903D000205DF8044B7047C0F8142B12
:10275800D0F8003B43F08023C0F8003BF2E700BF0D
:102768000A30544F002800F0068270B582B0044643
:10277800036813F0010F29D0A74B9B6803F00C03E3
:10278800042B1AD0A44B9B6803F00C03082B0FD022
:102798006368B3F5803F40D0002B54D19E4B1A6834
:1027A80022F480321A601A6822F480221A6039E012
:1027B800994B5B6813F4800FEAD0974B1B6813F4AE
:1027C800003F03D06368002B00F0D781236813F023
:1027D800020F74D0904B9B6813F00C0F5ED08E4B99
:1027E8009B6803F00C03082B53D0E368002B00F020
:1027F8008980894A136843F00103136001F002F8E5
:102808000546854B1B6813F0020F72D100F0FAFFE2
:10281800401B0228F5D90320B4E17F4A136843F42A
:102828008033136063682BB300F0ECFF05467A4BE6
:102838001B6813F4003FC9D100F0E4FF401B642873
:10284800F5D903209EE1B3F5A02F09D0724B1A6881
:1028580022F480321A601A6822F480221A60E1E7B2
:102868006D4B1A6842F480221A601A6842F480326A
:102878001A60D7E700F0C6FF0546674B1B6813F4DC
:10288800003FA3D000F0BEFF401B6428F5D9032009
:1028980078E1614B5B6813F4800FA6D15E4B1B682F
:1028A80013F0020F03D0E368012B40F068815A4A05
:1028B800136823F0F803216943EAC103136023680E
:1028C80013F0080F46D0636983B3534A536F43F03C
:1028D8000103536700F096FF05464F4B5B6F13F0FB
:1028E800020F37D100F08EFF401B0228F5D90320D4
:1028F80048E1494A136823F0F803216943EAC10310
:102908001360DCE7444A136823F00103136000F006
:1029180079FF0546404B1B6813F0020FCFD000F03B
:1029280071FF401B0228F5D903202BE13A4A536F67
:1029380023F00103536700F065FF0546364B5B6FD4
:1029480013F0020F06D000F05DFF401B0228F5D9F6
:10295800032017E1236813F0040F7DD02E4B1B6C66
:1029680013F0805F0BD12C4B1A6C42F080521A6422
:102978001B6C03F080530193019B012500E00025A7
:10298800264B1B6813F4807F0ED0A368012B1FD041
:10299800002B35D1204B1A6F22F001021A671A6FEB
:1029A80022F004021A6718E01C4A136843F4807383
:1029B800136000F027FF0646184B1B6813F4807F4E
:1029C800E3D100F01FFF801B6428F5D90320D9E06C
:1029D800114A136F43F001031367A36853B300F060
:1029E80011FF06460C4B1B6F13F0020F33D100F09A
:1029F80009FF801B41F288339842F3D90320C1E0D4
:102A0800052B0DD0044B1A6F22F001021A671A6FBA
:102A180022F004021A67E0E7003802400070004024
:102A2800604B1A6F42F004021A671A6F42F00102F3
:102A38001A67D2E700F0E6FE06465A4B1B6F13F002
:102A4800020F08D000F0DEFE801B41F28833984266
:102A5800F3D9032096E0FDB9A369002B00F091801B
:102A6800504A926802F00C02082A59D0022B19D059
:102A78004C4A136823F08073136000F0C3FE0446C9
:102A8800484B1B6813F0007F48D000F0BBFE001BCA
:102A98000228F5D9032075E0424A136C23F08053CD
:102AA8001364D9E73F4A136823F08073136000F07A
:102AB800A9FE05463B4B1B6813F0007F06D000F0CB
:102AC800A1FE401B0228F5D903205BE0E369226AD6
:102AD8001343626A43EA8213A26A5208013A43EA3C
:102AE8000243E26A43EA0263226B43EA02732D4A15
:102AF8005360136843F08073136000F083FE04464C
:102B0800284B1B6813F0007F06D100F07BFE001BEA
:102B18000228F5D9032035E0002033E0002031E019
:102B2800204A5268012B2FD002F48003E1698B42BE
:102B38002CD102F03F03216A8B4229D1616A47F602
:102B4800C0731340B3EB811F24D102F44031A36A50
:102B58005B08013BB1EB034F1ED102F07063E16AE1
:102B6800B3EB016F1AD102F0E042236BB2EB037FA3
:102B780016D1002006E001207047012002E0012064
:102B880000E0002002B070BD0120FBE70120F9E75A
:102B98000120F7E70120F5E70120F3E70120F1E73D
:102BA8000120EFE700380240F8B52F4B9B6803F08F
:102BB8000C03042B53D0082B53D12B4B5A6802F02B
:102BC8003F025B6813F4800F28D0274B5B68C3F380
:102BD800881358010021C01A61F100018E0146EAEC
:102BE800906687013C1A66EB0105E90041EA5471D9
:102BF800E000C01841F100014B0243EAD0534402FF
:102C0800204619460023FDF799FC174B5B68C3F370
:102C1800014301335B00B0FBF3F023E0124B5B6828
:102C2800C3F388135C010025E41A65F10005AE01C1
:102C380046EA9466A701381B66EB0501CC0044EA16
:102C48005074C500E81844F100018B0243EA905320
:102C58008402204619460023FDF770FCD5E7034897
:102C680000E00348F8BD00BF0038024000127A00B7
:102C78000024F400002800F0A08070B50D4604463A
:102C8800524B1B6803F00F038B420BD24F4A136859
:102C980023F00F030B431360136803F00F038B42F9
:102CA80040F08D80236813F0020F17D013F0040F43
:102CB80004D0474A936843F4E0539360236813F0C1
:102CC800080F04D0424A936843F460439360404A33
:102CD800936823F0F003A1680B439360236813F013
:102CE800010F31D06368012B20D0022B25D0384A40
:102CF800126812F0020F64D035498A6822F0030284
:102D080013438B6000F07EFD0646314B9B6803F051
:102D18000C036268B3EB820F16D000F073FD801BC2
:102D280041F288339842F0D9032045E0284A1268D6
:102D380012F4003FE0D101203EE0254A126812F06B
:102D4800007FD9D1012037E0204B1B6803F00F0327
:102D5800AB420AD91D4A136823F00F032B431360B3
:102D6800136803F00F03AB422DD1236813F0040F4F
:102D780006D0174A936823F4E053E1680B43936045
:102D8800236813F0080F07D0114A936823F46043AF
:102D9800216943EAC1039360FFF706FF0C4B9B6868
:102DA800C3F303130B4AD35CD8400B4B18600B4B8F
:102DB800186800F0E9FC002070BD01207047012070
:102DC800FAE70120F8E70120F6E700BF003C0240DF
:102DD800003802401C4C0408E0000020DC00002001
:102DE800014B1868704700BFE000002008B5FFF7E6
:102DF800F7FF044B9B68C3F38223034AD35CD84094
:102E080008BD00BF003802402C4C040808B5FFF785
:102E1800E7FF044B9B68C3F34233034AD35CD840B3
:102E280008BD00BF003802402C4C0408F0B583B040
:102E38000446066816F001060DD0B54B9A6822F4D0
:102E480000029A609A68416B0A439A60436B002BB0
:102E580000F055810026256815F4002511D0AC4AEC
:102E6800D2F88C3023F44013E16B0B43C2F88C305A
:102E7800E36BB3F5801F00F04481002B00F0438121
:102E88000025236813F4801F0FD0A14AD2F88C3094
:102E980023F44003216C0B43C2F88C30236CB3F548
:102EA800800F00F0328103B90125236813F0807F79
:102EB80000D0012613F0200F40F02C81236813F076
:102EC800100F0CD0924BD3F88C2022F08072C3F8EC
:102ED8008C20D3F88C20A16B0A43C3F88C2023687C
:102EE80013F4804F08D08A4AD2F8903023F4403344
:102EF800616E0B43C2F89030236813F4004F08D07A
:102F0800834AD2F8903023F44023A16E0B43C2F8D1
:102F18009030236813F4803F08D07D4AD2F890306F
:102F280023F44013E16E0B43C2F89030236813F486
:102F3800003F08D0764AD2F8903023F44003216F3E
:102F48000B43C2F89030236813F0400F08D0704A42
:102F5800D2F8903023F00303616C0B43C2F8903031
:102F6800236813F0800F08D0694AD2F8903023F014
:102F78000C03A16C0B43C2F89030236813F4807FD4
:102F880008D0634AD2F8903023F03003E16C0B4349
:102F9800C2F89030236813F4007F08D05C4AD2F856
:102FA800903023F0C003216D0B43C2F890302368A2
:102FB80013F4806F08D0564AD2F8903023F4407347
:102FC800616D0B43C2F89030236813F4006F08D08A
:102FD8004F4AD2F8903023F44063A16D0B43C2F8F6
:102FE8009030236813F4805F08D0494AD2F89030B3
:102FF80023F44053E16D0B43C2F89030236813F477
:10300800005F08D0424AD2F8903023F44043216E42
:103018000B43C2F89030236813F4800F08D03C4A61
:10302800D2F8903023F08063A16F0B43C2F8903040
:10303800236813F4001F0DD0354AD2F8903023F0DE
:103048000063E16F0B43C2F89030E36FB3F1006F98
:1030580000F0C680236813F0080F00D0012513F490
:10306800802F08D02A4AD2F8903023F04073616F3D
:103078000B43C2F89030236813F4000F09D0244A98
:10308800D2F8903023F08053D4F880100B43C2F864
:103098009030236813F0806F09D01D4AD2F8903021
:1030A80023F00053D4F884100B43C2F890302368FF
:1030B80013F0006F09D0164AD2F88C3023F0007351
:1030C800D4F888100B43C2F88C30236813F0805F63
:1030D80009D00F4AD2F88C3023F08063D4F88C10D2
:1030E8000B43C2F88C30002E7CD12368B3F1007FEB
:1030F80078D0012D00F00981002003B0F0BD012631
:10310800A9E60126B9E60125BBE60126CBE600BF04
:1031180000380240B74B1A6C42F080521A641B6C9C
:1031280003F080530193019BB34A136843F48073FF
:10313800136000F067FB0746AF4B1B6813F4807FF2
:1031480006D100F05FFBC01B6428F5D90320D4E743
:10315800A84B1B6F13F4407315D0226B02F4407216
:103168009A4210D0A34B1A6F22F44072196F41F49F
:1031780080311967196F21F4803119671A671B6F3D
:1031880013F0010F12D1236B03F44072B2F5407FA4
:103198001DD0984A936823F4F813936095490B6FF0
:1031A800226BC2F30B0213430B6787E600F02AFB7E
:1031B8000746904B1B6F13F0020FE4D100F022FB7F
:1031C800C01B41F288339842F3D9032095E7894818
:1031D800826822F4F812894919400A438260DDE7BF
:1031E800012537E7834A136823F08063136000F0F2
:1031F80009FB06467F4B1B6813F0006F06D000F0F2
:1032080001FB801B6428F5D9032076E7236813F0B7
:10321800010F13D0636B8BB9764AD2F88430D2F899
:103228008410606803F4403343EA801301F070614E
:103238000B43A16843EA0173C2F88430236813F48E
:10324800002F03D0E26BB2F5801F06D013F4801F65
:103258001ED0236CB3F5800F1AD1664AD2F8843099
:10326800D2F88410606803F4403343EA8013E068BE
:1032780043EA006301F0E0410B43C2F88430D2F81E
:103288008C3023F01F03616A01390B43C2F88C307C
:10329800236813F0807F11D0564AD2F88400D2F800
:1032A8008410666823691B0443EA861300F0706083
:1032B800034301F0E0410B43C2F88430236813F064
:1032C800007F0DD0626823691B0443EA8213E26819
:1032D80043EA0263A26843EA0273464AC2F88430AA
:1032E800444A136843F08063136000F08BFA064683
:1032F800404B1B6813F0006F7FF4FBAE00F082FABE
:10330800801B6428F4D90320F7E63A4A136823F0AF
:103318008053136000F076FA0546364B1B6813F0AD
:10332800005F06D000F06EFA401B6428F5D9032030
:10333800E3E6236813F4002F01D0E26B22B113F403
:10334800801F1DD0236CDBB92A4AD2F88830D2F806
:103358008810606903F4403343EA8013A06943EAA4
:10336800006301F0E0410B43C2F88830D2F88C309A
:1033780023F4F853A16A013943EA0123C2F88C30D7
:10338800236813F4001F03D0E36FB3F1006F37D045
:10339800236813F0080F19D0164AD2F88810D2F80B
:1033A8008830606903F4403343EA801301F07061A8
:1033B8000B43E16943EA0173C2F88830D2F88C30D4
:1033C80023F44033E16A0B43C2F88C30094A13688E
:1033D80043F08053136000F015FA0446054B1B6850
:1033E80013F0005F1FD100F00DFA001B6428F5D917
:1033F800032082E60038024000700040FFFCFF0F07
:103408000A4AD2F88800D2F888106569236A1B0432
:1034180043EA851300F07060034301F0E0410B4379
:10342800C2F88830B4E7002067E600BF00380240E1
:1034380000230F2B00F2E380F0B583B039E00922B6
:1034480000E00022B2403A4302346D4E46F8242090
:103458006C4A1468EA4324EA05064F6817F4803F6B
:1034680001D045EA0406674C2660646802EA04064F
:103478004F6817F4003F01D045EA0406614C6660C6
:10348800A46802EA04064F6817F4801F01D045EAD1
:1034980004065C4CA660E46822404E6816F4001FDF
:1034A80001D045EA0402574CE26001330F2B00F2C9
:1034B800A48001229A400C6804EA020532EA040456
:1034C800F3D14C68661E112C18BF012E01D9122C9D
:1034D80012D186685F000324BC4026EA0406CC6843
:1034E800BC4034438460466826EA02064C68C4F34C
:1034F80000129A4032434260C7685E000324B44019
:10350800E24327EA04078C68B4403C43C4604C6833
:10351800122C18BF022C13D1DF08083750F827E007
:1035280003F007044FEA840C0F2404FA0CF42EEA83
:10353800040E0C6904FA0CF444EA0E0440F827401F
:10354800046814404A6802F00302B2402243026051
:103558004A6812F0805FA8D02B4A546C44F4804427
:103568005464526C02F480420192019A9C08A61C91
:10357800234A52F8267003F0030296000F22B24045
:1035880027EA0207214A90423FF45BAF02F58062C6
:10359800904222D002F58062904220D002F58062EB
:1035A80090421ED002F5806290421CD002F58062E3
:1035B80090421AD002F58062904218D002F58062DB
:1035C800904216D002F58062904214D002F58062D3
:1035D80090423FF434AF0A2234E7012232E7022254
:1035E80030E703222EE704222CE705222AE70622E9
:1035F80028E7072226E7082224E703B0F0BD704732
:1036080000380140003C0140003802400000024000
:103618000AB18161704709048161704743690B42AF
:1036280002D009048161704781617047024A1368BA
:1036380043F48073136070470070004010B582B087
:103648001B4B1A6C42F080521A641B6C03F08053B7
:103658000193019B174A136843F48033136000F009
:10366800D1F80446134B5B6813F4803F08D100F08F
:10367800C9F8001BB0F57A7FF4D9032002B010BD59
:103688000C4A136843F40033136000F0BBF8044697
:10369800084B5B6813F4003F07D100F0B3F8001B38
:1036A800B0F57A7FF4D90320E8E70020E6E700BF09
:1036B80000380240007000400649CB6823F4E063FC
:1036C8001B041B0C000200F4E0600343024A1A4387
:1036D800CA60704700ED00E00000FA0530B4154BF1
:1036E800DB68C3F30223C3F10704042C28BF0424B6
:1036F8001D1D062D14D9033B4FF0FF3505FA04F4C0
:1037080021EA0401994005FA03F322EA0303194365
:10371800002807DB0901C9B2074B195430BC7047B0
:103728000023E9E700F00F000901C9B2034B19545F
:10373800F4E700BF00ED00E000E400E014ED00E075
:10374800002807DB00F01F02400901239340024ACA
:1037580042F82030704700BF00E100E00138B0F1C6
:10376800807F0AD2064B5860064AF02182F823105F
:103778000020986007221A6070470120704700BF38
:1037880010E000E000ED00E010B504460E4B18789C
:103798004FF47A73B3FBF0F30C4A1068B0FBF3F004
:1037A800FFF7DCFF68B90F2C01D901200AE00022DD
:1037B80021464FF0FF30FFF791FF054B1C600020BA
:1037C80000E0012010BD00BFD8000020E00000206C
:1037D800DC00002008B50320FFF76EFF0020FFF78C
:1037E800D3FFFDF79DF9002008BD0000034A1168CA
:1037F800034B1B780B441360704700BF741B0020F9
:10380800D8000020014B1868704700BF741B0020C7
:1038180038B5044683680269134342691343C26991
:103828001343016808689F4A024013430B602268EB
:10383800536823F44053E1680B435360A269236A39
:103848001A4321688B6823F4306313438B60236821
:10385800954A934219D0954A934229D0944A934263
:103868003ED0944A934262D0934A934271D0934A8D
:10387800934200F08380924A934200F09480914AE8
:10388800934200F0A58010253AE08F4BD3F8903092
:1038980003F00303032B09D8DFE803F00204AE06A4
:1038A80001252DE004252BE0082529E0102527E037
:1038B800854BD3F8903003F00C030C2B0ED8DFE8BF
:1038C80003F0070D0D0D090D0D0D9D0D0D0D0B00D0
:1038D800002515E0042513E0082511E010250FE068
:1038E800794BD3F8903003F03003202B00F0888018
:1038F80019D8002B00F08680102B40F08580042515
:10390800E369B3F5004F00F0AB80082D00F2408169
:10391800DFE815F00701180122013E012B013E01E5
:103928003E013E013501302B70D10825E8E7664B92
:10393800D3F8903003F0C003802B69D005D8002B52
:1039480068D0402B68D10425DAE7C02B66D108255A
:10395800D6E75D4BD3F8903003F44073B3F5007F9E
:103968005ED006D8002B5DD0B3F5807F5CD10425EE
:10397800C6E7B3F5407F59D10825C1E7524BD3F8C4
:10398800903003F44063B3F5006F51D006D8002B94
:1039980050D0B3F5806F4FD10425B1E7B3F5406F30
:1039A8004CD10825ACE7484BD3F8903003F440538A
:1039B800B3F5005F44D006D8002B43D0B3F5805F41
:1039C80042D104259CE7B3F5405F3FD1082597E72E
:1039D8003D4BD3F8903003F44043B3F5004F37D054
:1039E80005D8BBB3B3F5804F36D1042588E7B3F5C6
:1039F800404F33D1082583E7022581E702257FE779
:103A080002257DE700257BE7102579E7102577E774
:103A1800022575E7002573E7102571E710256FE784
:103A280002256DE700256BE7102569E7102567E794
:103A3800022565E7012563E7102561E710255FE7A3
:103A480002255DE700255BE7102559E7102557E7B4
:103A5800022555E7002553E7102551E710254FE7C4
:103A6800082D5BD8DFE805F005323D5A465A5A5A08
:103A78005100FFF7BBF96268530803EB4003B3FB3F
:103A8800F2F39BB2A3F110014FF6EF72914200F2EC
:103A980082809AB222F00F02C3F3420313432268D2
:103AA800D3607BE0F369FFEF001001400044004061
:103AB80000480040004C0040005000400014014005
:103AC80000780040007C004000380240FFF79EF973
:103AD8006268530803EB4003B3FBF2F39BB2002583
:103AE800D0E76268304B03EB5203B3FBF2F39BB2AF
:103AF8000025C7E7FFF758F86268530803EB40034F
:103B0800B3FBF2F39BB20025BCE76268530803F5E8
:103B18008033B3FBF2F39BB20025B3E70125002302
:103B2800B0E7FFF763F9626800EB5203B3FBF2F307
:103B38009BB2A3F110014FF6EF7291422DD8226883
:103B4800D3602BE0FFF762F9626800EB5203B3FB26
:103B5800F2F39BB20025ECE76268144B03EB5203C7
:103B6800B3FBF2F39BB20025E3E7FFF71DF86268A9
:103B780000EB5203B3FBF2F39BB20025D9E762686E
:103B8800530803F50043B3FBF2F39BB20025D0E7DB
:103B980001250023CDE7012500E001250023236648
:103BA8006366284638BD00BF0048E8010024F400D9
:103BB800436A13F0010F06D00268536823F40033F8
:103BC800816A0B435360436A13F0020F06D0026800
:103BD800536823F48033C16A0B435360436A13F07C
:103BE800040F06D00268536823F48023016B0B434B
:103BF8005360436A13F0080F06D00268536823F431
:103C08000043416B0B435360436A13F0100F06D017
:103C18000268936823F48053816B0B439360436A73
:103C280013F0200F06D00268936823F40053C16B89
:103C38000B439360436A13F0400F0AD0026853683D
:103C480023F48013016C0B435360036CB3F5801F9E
:103C58000BD0436A13F0800F06D00268536823F430
:103C68000023816C0B43536070470268536823F448
:103C7800C003416C0B435360EBE72DE9F84305465D
:103C88000F4616469946DDF820802C68E46937EA25
:103C980004030CBF01240024B4423CD1B8F1FF3F17
:103CA800F3D0FFF7AFFDA0EB0900404521D8B8F1EC
:103CB800000F1ED02B681A6812F0040FE5D0DA69DD
:103CC80012F4006FE1D04FF400621A622A68136898
:103CD80023F4D07313602A68936823F00103936078
:103CE80020236B67AB67EB67002385F870300320F0
:103CF80012E02A68136823F4D07313602A68936863
:103D080023F00103936020236B67AB67002385F8DA
:103D18007030032000E00020BDE8F88330B583B0A0
:103D280004460023C367FFF76DFD054623681B683B
:103D380013F0080F0CD123681B6813F0040F15D17A
:103D480020236367A367002084F8700003B030BDA8
:103D58006FF07E430093034600224FF40011204683
:103D6800FFF78BFF0028E6D00320EFE76FF07E43D4
:103D780000932B4600224FF480012046FFF77DFF79
:103D88000028DDD00320E1E768B310B50446436F8F
:103D980003B3242363672268136823F001031360C5
:103DA8002046FFF735FD012813D0636ABBB92268A6
:103DB800536823F4904353602268936823F02A03DE
:103DC80093602268136843F0010313602046FFF7ED
:103DD800A5FF10BD80F87030FCF7BAFED9E7204681
:103DE800FFF7E6FEE3E7012070470000054BD3F834
:103DF800882042F47002C3F888204FF000629A606D
:103E0800704700BF00ED00E0C0B108B50346D0F828
:103E1800B80210B10020C3F8B802D3F8CC0210B130
:103E28000020C3F8CC0209B1C3F8B412012183F809
:103E38009C121A701846FDF771F808BD03207047E8
:103E480010B582B00023ADF8063059B10446C0F869
:103E5800B8128B6A0DF106009847C4F8CC0200200E
:103E680002B010BD0320FBE708B5FDF7E5F808BD73
:103E780008B5D0F8B83213B11B68984708BD0320BD
:103E8800FCE708B5D0F8B8320BB15B68984700205A
:103E980008BD38B5044600F2AA25284600F02DF9D9
:103EA8000123C4F89432B4F8B032C4F8983294F8C4
:103EB800AA1201F01F03012B0DD0022B10D02BB139
:103EC80001F080012046FDF7D2F803E0294620469C
:103ED80000F0DEFA38BD2946204600F011FBF9E76C
:103EE8002946204600F040FBF4E738B504460D4665
:103EF80031BB1346D0F89422032A01D0084638BDB6
:103F0800D0F85C11D0F8602191420CD8D0F8B832C2
:103F18001B691BB190F89C22032A0FD0204600F0A1
:103F280073FC2846EBE7891AC0F85C118A4228BF5F
:103F38000A46194600F060FC2846E0E79847EDE796
:103F4800D0F8B8329B692BB190F89C22032A03D190
:103F58009847D4E70320D2E70320D0E738B50446D2
:103F68000D46002948D11346D0F89422022A05D0DC
:103F780094F8A032012B3AD0284638BDC269016AAC
:103F88008A4211D88A421BD0D4F8B832DB681BB1F8
:103F980094F89C22032A27D080212046FDF767F851
:103FA800204600F03CFCE3E7521AC261194600F0D3
:103FB8000CFC00231A4619462046FDF778F8D7E787
:103FC80083699942E0D8D0F898229342DCD2002243
:103FD800114600F0FAFB0021C4F898120B460A4675
:103FE8002046FDF764F8C3E720469847D4E7002346
:103FF80084F8A0322846C0E7D0F8B8325B692BB104
:1040080090F89C22032A03D19847B6E70320B4E727
:104018000320B2E770B50446012380F89C320023E0
:10402800C0F894324360C0F8A432D0F8BC3223B14F
:10403800D0F8B8325B680021984740230022114627
:104048002046FDF701F80126A4F864614025C4F86C
:1040580060512B46002280212046FCF7F5FFA684FC
:104068002562002070BD01740020704790F89C32D2
:1040780080F89D32042380F89C320020704790F825
:104088009C32042B01D00020704790F89D3280F8B4
:104098009C32F8E708B590F89C32032B01D0002039
:1040A80008BDD0F8B832DB69002BF8D09847F6E79E
:1040B80000207047002070470020704708B5012392
:1040C80080F89C32D0F8B83213B15B680179984710
:1040D800002008BD034600201A781AB10130C0B28A
:1040E8000133F9E7704708B54B88012B00D008BDAC
:1040F800C0F8A43200F088FBF9E70B7803704B781E
:1041080043708B78CA7843EA022343800B794A7953
:1041180043EA022383808B79CA7943EA0223C38066
:10412800704710B504468021FCF7A1FF0021204606
:10413800FCF79DFF10BD30B583B004460D46002343
:10414800ADF806304A88130A013B0E2B00F2BC80FA
:10415800DFE803F0153044BABA9EABBABABABABAB5
:10416800BABA0800D0F8B432DB6923B10DF1060100
:10417800007C98470AE02946FFF7D3FF18E0D0F8FB
:10418800B4321B680DF10601007C9847EA88002AC2
:1041980000F0A380BDF80630002B00F099809A4209
:1041A80028BF1A46ADF806200146204600F000FB5D
:1041B80003B030BD037C43B9D0F8B8329B6A0DF127
:1041C8000600984702234370E0E7D0F8B832DB6A6C
:1041D8000DF10600984702234370D7E7D2B2052AAB
:1041E80052D8DFE802F003101D2A3744D0F8B43261
:1041F8005B6823B10DF10601007C9847C6E72946A4
:10420800FFF78FFFD4E7D0F8B4329B6823B10DF1E4
:104218000601007C9847B9E72946FFF782FFC7E700
:10422800D0F8B432DB6823B10DF10601007C984761
:10423800ACE72946FFF775FFBAE7D0F8B4321B6937
:1042480023B10DF10601007C98479FE72946FFF747
:1042580068FFADE7D0F8B4325B6923B10DF1060110
:10426800007C984792E72946FFF75BFFA0E7D0F864
:10427800B4329B6923B10DF10601007C984785E7AC
:104288002946FFF74EFF93E72946FFF74AFF8FE7D6
:10429800037C33B9D0F8B8325B6B0DF10600984750
:1042A80074E72946FFF73DFF82E7037C43B9D0F85E
:1042B800B8321B6B0DF1060098470723437065E77A
:1042C8002946FFF72EFF73E72946FFF72AFF6FE716
:1042D80029462046FFF725FF6AE7204600F094FAB2
:1042E80066E738B504468B88F3B9CB88E3B94B88C1
:1042F8007F2B19D803F07F0590F89C32032B0CD044
:1043080080F89E522946FCF7C2FE204600F07CFA4F
:1043180035B1022384F89C3209E0FFF702FF06E07A
:10432800012384F89C3202E02046FFF7FAFE38BDEC
:1043380070B504460E468D782D4B1D70012D0FD893
:1043480090F89C32022B0FD0032B23D0FFF7E9FE05
:10435800274B19782046FFF794FD0325284670BDA2
:10436800FFF7DFFE0325F9E78DB145602946FFF722
:104378007FFD054620B131462046FFF7D2FEEDE726
:10438800204600F041FA032384F89C32E6E700F067
:104398003BFAE3E7CDB141688D4225D0C9B2FFF7BA
:1043A80070FD134B197861602046FFF761FD0546E3
:1043B800B0B131462046FFF7B4FE21792046FFF719
:1043C80060FD022384F89C32C8E7022380F89C32FF
:1043D80045602946FFF755FD204600F015FABDE770
:1043E800204600F011FAB9E700F00EFA0025B5E70B
:1043F8001C02002008B5CB88012B0AD190F89C320A
:10440800022B09D9032B09D10122011D00F0D0F993
:1044180001E0FFF786FE08BD5BB213B9FFF781FE26
:10442800F9E70146002341F8083F012200F0C0F9EE
:10443800F1E708B590F89C32013B022B12D8CB88E3
:10444800022B0CD10123C360D0F8A4320BB1032393
:10445800C360022200F10C0100F0AAF908BDFFF7C1
:1044680060FEFBE7FFF75DFEF8E708B590F89C32C1
:10447800013B022B09D84B88012B00D008BD002333
:10448800C0F8A43200F0C0F9F8E7FFF74AFEF5E7F4
:1044980038B50C7804F06004202C06D0402C04D0E9
:1044A80054B1FFF73EFE002404E0D0F8B8329B6810
:1044B80098470446204638BD4D78092D1DD8DFE8B9
:1044C80005F012191C161C08051C0F0BFFF733FE0C
:1044D800F0E7FFF706FFEDE7FFF72AFF0446E9E7F5
:1044E800FFF788FFE6E7FFF7A4FF2C46E2E7FFF7B0
:1044F800FAFDDFE7FFF7B9FFDCE7FFF712FED9E7C0
:1045080070B505460C460B7803F06003202B07D0E6
:10451800402B05D023B1FFF704FE0026304670BDBE
:1045280095F89C32013B022B18D82379012B0FD820
:10453800D5F8B8329B682146284698470646E3884E
:10454800002BEBD10028E9D1284600F05DF9E5E71A
:1045580021462846FFF7E5FD0026DFE721462846E5
:10456800FFF7DFFD0026D9E7F8B506460D468B882C
:104578000C7804F06004202C08D0D9B2402C05D067
:104588006CB12946FFF7CDFD002406E0D6F8B83215
:104598009B6829463046984704462046F8BD6F7800
:1045A800012F37D0032F05D0002F63D02946FFF7FE
:1045B800B8FDF2E790F89C32022B05D0032B16D0F9
:1045C8002946FFF7AEFDE8E7B1F1800318BF0123E4
:1045D800002908BF002333B1FCF749FD802130468C
:1045E800FCF745FDD9E72946FFF79BFDD5E76B8822
:1045F8004BB9B1F1800318BF0123002908BF00237C
:104608000BB1EB881BB1304600F0FEF8C5E7FCF7AC
:104618002EFDF8E790F89C32022B05D0032B16D01C
:104628002946FFF77EFDB8E7B1F1800318BF0123E3
:10463800002908BF002333B1FCF719FD802130465B
:10464800FCF715FDA9E72946FFF76BFDA5E76B8881
:10465800002BA2D111F07F0F09D1304600F0D4F819
:10466800D6F8B8329B6829463046984795E7FCF754
:1046780006FDF2E790F89C22022A06D0032A2ED0E3
:104688002946FFF74EFD3C4687E7B1F1800218BF87
:104698000122002908BF00229AB913F0800F15D112
:1046A80001F07F0101EB8101890001F5A871014446
:1046B800043100230B600222304600F079F83C46B2
:1046C8006BE72946FFF72DFD3C4666E701F07F01C1
:1046D80001EB81018900103101440431E9E75BB243
:1046E800002B24DB01F00F0202EB820200EB8202B6
:1046F800B2F864214AB3002B2CDB01F07F0303EBF3
:1047080083039C0004F5A87434440434802914BF3E
:1047180000230123002908BF012323B300232360BA
:1047280002222146304600F043F83C4635E701F0C6
:104738000F0202EB820200EB8202928C002ADAD18D
:104748002946FFF7EEFC3C4627E72946FFF7E9FC38
:104758003C4622E701F07F0303EB83039C001034FF
:1047680034440434D2E73046FCF70CFC10B1012382
:104778002360D5E700232360D2E7C0B170B50D46AA
:1047880016460446FFF7A6FC01304000308028702A
:1047980003236B700223227842B1EA5401345A1C75
:1047A800D2B20021A9540233DBB2F4E770BD7047DE
:1047B80010B513460222C0F894228361C3610A46E9
:1047C8000021FCF76CFC002010BD08B513460A4612
:1047D8000021FCF764FC002008BD10B51346032235
:1047E800C0F89422C0F85831C0F85C310A4600215C
:1047F800FCF75DFC002010BD08B513460A460021F1
:10480800FCF755FC002008BD08B50423C0F8943215
:1048180000231A461946FCF742FC002008BD08B5DB
:104828000523C0F8943200231A461946FCF73FFCCA
:10483800002008BD10B5D0F8BC42D0F8C0325BB13A
:1048480094F80002FF2807D09B6894F801222146BB
:104858009847FF2384F80032002010BD43230380CB
:10486800004870471C01002043230380004870471C
:10487800600100204323038000487047B0010020F6
:104888000A23038000487047A401002038B5D0F8F7
:10489800BC5275B10446FCF78CFBC5F80C02D4F881
:1048A800C032DB6805F50371D5F80402984700208B
:1048B80038BD0320FCE738B5D0F8C442D0F8BC3284
:1048C8004BB301EB810200EB820292694AB1C1EB62
:1048D800C10504EB8504656CB2FBF5F405FB1422F5
:1048E8006AB10024C3F81442D0F8C02215690A46F8
:1048F80003F50471D3F80802A847204638BD01EB38
:10490800810300EB830300249C6123462246FCF7C5
:10491800C6FB2046F2E70320F0E7F0B583B0064671
:104928000C46D0F8BC7200238DF80730ADF804307F
:104938000B7813F0600527D0202D58D1CA88DAB13A
:1049480013F0800F0CD0D0F8C0329B6839466078DD
:104958009847E28839463046FFF72AFF002549E0A4
:104968004B7887F800328B7987F80132CA88394644
:10497800FFF733FF00253DE0D0F8C0329B680022E6
:1049880048789847002535E04F780B2F2BD8DFE87B
:1049980007F006312A2A2A2A2A2A2A2A142290F8D3
:1049A8009C32032B03D0FFF7BCFB032522E0022235
:1049B80001A9FFF7FDFE3D461CE090F89C32032B51
:1049C80003D0FFF7AEFB032514E001220DF1070128
:1049D800FFF7EEFE0EE090F89C32032B0AD0FFF7AB
:1049E800A0FB032506E0FFF79CFB032502E0FFF789
:1049F80098FB0325284603B0F0BD38B5044681214D
:104A0800FCF72DFB0025258701212046FCF727FB15
:104A1800A4F8785182212046FCF721FBA4F84C50D9
:104A2800A4F84E50D4F8BC324BB1D4F8C0325B680D
:104A38009847D4F8BC02FBF74BFCC4F8BC520020E2
:104A480038BD70B504464FF40770FBF739FCB8B3AE
:104A58000646C4F8BC02237CBBBB4FF40073022299
:104A680081212046FCF7F0FA012525874FF40073D1
:104A7800022229462046FCF7E7FAA4F878511023C9
:104A8800A4F84E300823032282212046FCF7DCFAE2
:104A98000123A4F84C30D4F8C0321B68984700238F
:104AA800C6F81432C6F81832257C15BB4FF40073CB
:104AB800D6F8042201212046FCF7F9FA284670BDF1
:104AC8000023C4F8BC320225F8E7402302228121E2
:104AD8002046FCF7B9FA01252587402302222946FA
:104AE8002046FCF7B1FAA4F878511023A4F84E3008
:104AF800C8E74023D6F8042201212046FCF7D7FA5C
:104B08000025DBE719B1C0F8C01200207047032068
:104B18007047D0F8BC32C3F80812C3F8102200203E
:104B28007047D0F8BC32C3F804120020704710B5A3
:104B3800D0F8BC2292B1047C44B94FF40073D2F887
:104B480004220121FCF7B3FA204610BD4023D2F815
:104B580004220121FCF7ABFA0024F5E70324F3E76C
:104B6800DFF834D0002103E00C4B5B58435004318C
:104B78000B480C4B42189A42F6D30B4A02E000232A
:104B880042F8043B094B9A42F9D3FFF72FF9FBF798
:104B980073FBFBF789FF704700000820444C0408AA
:104BA80000000020F4010020F40100207C1B0020FC
:104BB800FEE70000F8B500BFF8BC08BC9E46704789
:0C4BC800F8B500BFF8BC08BC9E46704762
:104BD40053544D3332205669727475616C20436F9F
:104BE4006D506F727400000053544D6963726F65A9
:104BF4006C656374726F6E69637300004344432091
:104C0400436F6E666967000043444320496E7465D0
:104C1400726661636500000000000000000000008F
:104C2400010203040607080900000000010203044E
:084C340040B9FF7F0100000000
:044C3C006102040805
:044C40003902040829
:104C4400040000200000000000000000000000003C
:104C54000000000000000000000000000000000050
:104C64000000000000000000000000000000000040
:104C74000000000000000000000000000000000030
:104C84000000000000000000000000000000000020
:104C94000000000000000000000000000000000010
:104CA400000000001D0C0408290C0408E50C04088D
:104CB400C10C0408AD0C0408010D0408250D0408FA
:104CC400350C0408050F0C00010710020200000057
:104CD4001201010202020040830440570002010253
:104CE40003010000040309041A030000000000008B
:104CF40000000000000000000000000000000000B0
:104D040000000000710D0408490D04084D0D04084D
:104D1400550D0408510D04080100000010000000A6
:104D24000024F4004B4A0408034A040823490408F5
:104D3400000000003D480408BF48040895480408E2
:104D4400000000000000000000000000714804089A
:104D5400654804087D48040889480408090243009A
:104D6400020100C03209040000010202010005240E
:104D74000010010524010001042402020524060098
:104D8400010705820308001009040100020A00005B
:104D940000070501024000000705810240000000F1
:104DA40009024300020100C03209040000010202AA
:104DB400010005240010010524010001042402025D
:104DC40005240600010705820308001009040100F8
:104DD400020A000000070501020002000705810223
:104DE400000200000A06000200000040010000006A
:104DF40009074300020104C0320904000001020251
:104E0400010005240010010524010001042402020C
:104E140005240600010705820308001009040100A7
:104E2400020A000000070501024000000705810294
:044E3400400000003A
:0400000508044B6937
:00000001FF
